{
  "_format": "hh-sol-artifact-1",
  "contractName": "DaobiChancellorsSeal",
  "sourceName": "contracts/DaobiChancellorsSeal.sol",
  "abi": [
    {
      "inputs": [],
      "stateMutability": "nonpayable",
      "type": "constructor"
    },
    {
      "anonymous": false,
      "inputs": [
        {
          "indexed": false,
          "internalType": "address",
          "name": "previousAdmin",
          "type": "address"
        },
        {
          "indexed": false,
          "internalType": "address",
          "name": "newAdmin",
          "type": "address"
        }
      ],
      "name": "AdminChanged",
      "type": "event"
    },
    {
      "anonymous": false,
      "inputs": [
        {
          "indexed": true,
          "internalType": "address",
          "name": "owner",
          "type": "address"
        },
        {
          "indexed": true,
          "internalType": "address",
          "name": "approved",
          "type": "address"
        },
        {
          "indexed": true,
          "internalType": "uint256",
          "name": "tokenId",
          "type": "uint256"
        }
      ],
      "name": "Approval",
      "type": "event"
    },
    {
      "anonymous": false,
      "inputs": [
        {
          "indexed": true,
          "internalType": "address",
          "name": "owner",
          "type": "address"
        },
        {
          "indexed": true,
          "internalType": "address",
          "name": "operator",
          "type": "address"
        },
        {
          "indexed": false,
          "internalType": "bool",
          "name": "approved",
          "type": "bool"
        }
      ],
      "name": "ApprovalForAll",
      "type": "event"
    },
    {
      "anonymous": false,
      "inputs": [
        {
          "indexed": true,
          "internalType": "address",
          "name": "beacon",
          "type": "address"
        }
      ],
      "name": "BeaconUpgraded",
      "type": "event"
    },
    {
      "anonymous": false,
      "inputs": [
        {
          "indexed": false,
          "internalType": "uint8",
          "name": "version",
          "type": "uint8"
        }
      ],
      "name": "Initialized",
      "type": "event"
    },
    {
      "anonymous": false,
      "inputs": [
        {
          "indexed": false,
          "internalType": "address",
          "name": "account",
          "type": "address"
        }
      ],
      "name": "Paused",
      "type": "event"
    },
    {
      "anonymous": false,
      "inputs": [
        {
          "indexed": true,
          "internalType": "bytes32",
          "name": "role",
          "type": "bytes32"
        },
        {
          "indexed": true,
          "internalType": "bytes32",
          "name": "previousAdminRole",
          "type": "bytes32"
        },
        {
          "indexed": true,
          "internalType": "bytes32",
          "name": "newAdminRole",
          "type": "bytes32"
        }
      ],
      "name": "RoleAdminChanged",
      "type": "event"
    },
    {
      "anonymous": false,
      "inputs": [
        {
          "indexed": true,
          "internalType": "bytes32",
          "name": "role",
          "type": "bytes32"
        },
        {
          "indexed": true,
          "internalType": "address",
          "name": "account",
          "type": "address"
        },
        {
          "indexed": true,
          "internalType": "address",
          "name": "sender",
          "type": "address"
        }
      ],
      "name": "RoleGranted",
      "type": "event"
    },
    {
      "anonymous": false,
      "inputs": [
        {
          "indexed": true,
          "internalType": "bytes32",
          "name": "role",
          "type": "bytes32"
        },
        {
          "indexed": true,
          "internalType": "address",
          "name": "account",
          "type": "address"
        },
        {
          "indexed": true,
          "internalType": "address",
          "name": "sender",
          "type": "address"
        }
      ],
      "name": "RoleRevoked",
      "type": "event"
    },
    {
      "anonymous": false,
      "inputs": [],
      "name": "SealBurnt",
      "type": "event"
    },
    {
      "anonymous": false,
      "inputs": [
        {
          "indexed": true,
          "internalType": "address",
          "name": "mintee",
          "type": "address"
        }
      ],
      "name": "SealMinted",
      "type": "event"
    },
    {
      "anonymous": false,
      "inputs": [
        {
          "indexed": false,
          "internalType": "string",
          "name": "newAddr",
          "type": "string"
        }
      ],
      "name": "SealURIRetarget",
      "type": "event"
    },
    {
      "anonymous": false,
      "inputs": [
        {
          "indexed": true,
          "internalType": "address",
          "name": "from",
          "type": "address"
        },
        {
          "indexed": true,
          "internalType": "address",
          "name": "to",
          "type": "address"
        },
        {
          "indexed": true,
          "internalType": "uint256",
          "name": "tokenId",
          "type": "uint256"
        }
      ],
      "name": "Transfer",
      "type": "event"
    },
    {
      "anonymous": false,
      "inputs": [
        {
          "indexed": false,
          "internalType": "address",
          "name": "account",
          "type": "address"
        }
      ],
      "name": "Unpaused",
      "type": "event"
    },
    {
      "anonymous": false,
      "inputs": [
        {
          "indexed": true,
          "internalType": "address",
          "name": "implementation",
          "type": "address"
        }
      ],
      "name": "Upgraded",
      "type": "event"
    },
    {
      "inputs": [],
      "name": "DAOBI_CONTRACT",
      "outputs": [
        {
          "internalType": "bytes32",
          "name": "",
          "type": "bytes32"
        }
      ],
      "stateMutability": "view",
      "type": "function"
    },
    {
      "inputs": [],
      "name": "DEFAULT_ADMIN_ROLE",
      "outputs": [
        {
          "internalType": "bytes32",
          "name": "",
          "type": "bytes32"
        }
      ],
      "stateMutability": "view",
      "type": "function"
    },
    {
      "inputs": [],
      "name": "PAUSER_ROLE",
      "outputs": [
        {
          "internalType": "bytes32",
          "name": "",
          "type": "bytes32"
        }
      ],
      "stateMutability": "view",
      "type": "function"
    },
    {
      "inputs": [],
      "name": "SEAL_MANAGER",
      "outputs": [
        {
          "internalType": "bytes32",
          "name": "",
          "type": "bytes32"
        }
      ],
      "stateMutability": "view",
      "type": "function"
    },
    {
      "inputs": [],
      "name": "UPGRADER_ROLE",
      "outputs": [
        {
          "internalType": "bytes32",
          "name": "",
          "type": "bytes32"
        }
      ],
      "stateMutability": "view",
      "type": "function"
    },
    {
      "inputs": [],
      "name": "URIaddr",
      "outputs": [
        {
          "internalType": "string",
          "name": "",
          "type": "string"
        }
      ],
      "stateMutability": "view",
      "type": "function"
    },
    {
      "inputs": [
        {
          "internalType": "address",
          "name": "to",
          "type": "address"
        },
        {
          "internalType": "uint256",
          "name": "tokenId",
          "type": "uint256"
        }
      ],
      "name": "approve",
      "outputs": [],
      "stateMutability": "nonpayable",
      "type": "function"
    },
    {
      "inputs": [
        {
          "internalType": "address",
          "name": "owner",
          "type": "address"
        }
      ],
      "name": "balanceOf",
      "outputs": [
        {
          "internalType": "uint256",
          "name": "",
          "type": "uint256"
        }
      ],
      "stateMutability": "view",
      "type": "function"
    },
    {
      "inputs": [],
      "name": "burn",
      "outputs": [],
      "stateMutability": "nonpayable",
      "type": "function"
    },
    {
      "inputs": [
        {
          "internalType": "uint256",
          "name": "tokenId",
          "type": "uint256"
        }
      ],
      "name": "getApproved",
      "outputs": [
        {
          "internalType": "address",
          "name": "",
          "type": "address"
        }
      ],
      "stateMutability": "view",
      "type": "function"
    },
    {
      "inputs": [
        {
          "internalType": "bytes32",
          "name": "role",
          "type": "bytes32"
        }
      ],
      "name": "getRoleAdmin",
      "outputs": [
        {
          "internalType": "bytes32",
          "name": "",
          "type": "bytes32"
        }
      ],
      "stateMutability": "view",
      "type": "function"
    },
    {
      "inputs": [
        {
          "internalType": "bytes32",
          "name": "role",
          "type": "bytes32"
        },
        {
          "internalType": "address",
          "name": "account",
          "type": "address"
        }
      ],
      "name": "grantRole",
      "outputs": [],
      "stateMutability": "nonpayable",
      "type": "function"
    },
    {
      "inputs": [
        {
          "internalType": "bytes32",
          "name": "role",
          "type": "bytes32"
        },
        {
          "internalType": "address",
          "name": "account",
          "type": "address"
        }
      ],
      "name": "hasRole",
      "outputs": [
        {
          "internalType": "bool",
          "name": "",
          "type": "bool"
        }
      ],
      "stateMutability": "view",
      "type": "function"
    },
    {
      "inputs": [],
      "name": "initialize",
      "outputs": [],
      "stateMutability": "nonpayable",
      "type": "function"
    },
    {
      "inputs": [
        {
          "internalType": "address",
          "name": "owner",
          "type": "address"
        },
        {
          "internalType": "address",
          "name": "operator",
          "type": "address"
        }
      ],
      "name": "isApprovedForAll",
      "outputs": [
        {
          "internalType": "bool",
          "name": "",
          "type": "bool"
        }
      ],
      "stateMutability": "view",
      "type": "function"
    },
    {
      "inputs": [
        {
          "internalType": "address",
          "name": "to",
          "type": "address"
        }
      ],
      "name": "mint",
      "outputs": [],
      "stateMutability": "nonpayable",
      "type": "function"
    },
    {
      "inputs": [],
      "name": "name",
      "outputs": [
        {
          "internalType": "string",
          "name": "",
          "type": "string"
        }
      ],
      "stateMutability": "view",
      "type": "function"
    },
    {
      "inputs": [
        {
          "internalType": "uint256",
          "name": "tokenId",
          "type": "uint256"
        }
      ],
      "name": "ownerOf",
      "outputs": [
        {
          "internalType": "address",
          "name": "",
          "type": "address"
        }
      ],
      "stateMutability": "view",
      "type": "function"
    },
    {
      "inputs": [],
      "name": "pause",
      "outputs": [],
      "stateMutability": "nonpayable",
      "type": "function"
    },
    {
      "inputs": [],
      "name": "paused",
      "outputs": [
        {
          "internalType": "bool",
          "name": "",
          "type": "bool"
        }
      ],
      "stateMutability": "view",
      "type": "function"
    },
    {
      "inputs": [],
      "name": "proxiableUUID",
      "outputs": [
        {
          "internalType": "bytes32",
          "name": "",
          "type": "bytes32"
        }
      ],
      "stateMutability": "view",
      "type": "function"
    },
    {
      "inputs": [
        {
          "internalType": "bytes32",
          "name": "role",
          "type": "bytes32"
        },
        {
          "internalType": "address",
          "name": "account",
          "type": "address"
        }
      ],
      "name": "renounceRole",
      "outputs": [],
      "stateMutability": "nonpayable",
      "type": "function"
    },
    {
      "inputs": [
        {
          "internalType": "bytes32",
          "name": "role",
          "type": "bytes32"
        },
        {
          "internalType": "address",
          "name": "account",
          "type": "address"
        }
      ],
      "name": "revokeRole",
      "outputs": [],
      "stateMutability": "nonpayable",
      "type": "function"
    },
    {
      "inputs": [
        {
          "internalType": "address",
          "name": "from",
          "type": "address"
        },
        {
          "internalType": "address",
          "name": "to",
          "type": "address"
        },
        {
          "internalType": "uint256",
          "name": "tokenId",
          "type": "uint256"
        }
      ],
      "name": "safeTransferFrom",
      "outputs": [],
      "stateMutability": "nonpayable",
      "type": "function"
    },
    {
      "inputs": [
        {
          "internalType": "address",
          "name": "from",
          "type": "address"
        },
        {
          "internalType": "address",
          "name": "to",
          "type": "address"
        },
        {
          "internalType": "uint256",
          "name": "tokenId",
          "type": "uint256"
        },
        {
          "internalType": "bytes",
          "name": "data",
          "type": "bytes"
        }
      ],
      "name": "safeTransferFrom",
      "outputs": [],
      "stateMutability": "nonpayable",
      "type": "function"
    },
    {
      "inputs": [
        {
          "internalType": "address",
          "name": "operator",
          "type": "address"
        },
        {
          "internalType": "bool",
          "name": "approved",
          "type": "bool"
        }
      ],
      "name": "setApprovalForAll",
      "outputs": [],
      "stateMutability": "nonpayable",
      "type": "function"
    },
    {
      "inputs": [
        {
          "internalType": "string",
          "name": "newURI",
          "type": "string"
        }
      ],
      "name": "setURI",
      "outputs": [],
      "stateMutability": "nonpayable",
      "type": "function"
    },
    {
      "inputs": [
        {
          "internalType": "bytes4",
          "name": "interfaceId",
          "type": "bytes4"
        }
      ],
      "name": "supportsInterface",
      "outputs": [
        {
          "internalType": "bool",
          "name": "",
          "type": "bool"
        }
      ],
      "stateMutability": "view",
      "type": "function"
    },
    {
      "inputs": [],
      "name": "symbol",
      "outputs": [
        {
          "internalType": "string",
          "name": "",
          "type": "string"
        }
      ],
      "stateMutability": "view",
      "type": "function"
    },
    {
      "inputs": [
        {
          "internalType": "address",
          "name": "_dbContract",
          "type": "address"
        }
      ],
      "name": "targetDaobiContract",
      "outputs": [],
      "stateMutability": "nonpayable",
      "type": "function"
    },
    {
      "inputs": [
        {
          "internalType": "uint256",
          "name": "index",
          "type": "uint256"
        }
      ],
      "name": "tokenByIndex",
      "outputs": [
        {
          "internalType": "uint256",
          "name": "",
          "type": "uint256"
        }
      ],
      "stateMutability": "view",
      "type": "function"
    },
    {
      "inputs": [
        {
          "internalType": "address",
          "name": "owner",
          "type": "address"
        },
        {
          "internalType": "uint256",
          "name": "index",
          "type": "uint256"
        }
      ],
      "name": "tokenOfOwnerByIndex",
      "outputs": [
        {
          "internalType": "uint256",
          "name": "",
          "type": "uint256"
        }
      ],
      "stateMutability": "view",
      "type": "function"
    },
    {
      "inputs": [
        {
          "internalType": "uint256",
          "name": "tokenId",
          "type": "uint256"
        }
      ],
      "name": "tokenURI",
      "outputs": [
        {
          "internalType": "string",
          "name": "",
          "type": "string"
        }
      ],
      "stateMutability": "view",
      "type": "function"
    },
    {
      "inputs": [],
      "name": "totalSupply",
      "outputs": [
        {
          "internalType": "uint256",
          "name": "",
          "type": "uint256"
        }
      ],
      "stateMutability": "view",
      "type": "function"
    },
    {
      "inputs": [
        {
          "internalType": "address",
          "name": "from",
          "type": "address"
        },
        {
          "internalType": "address",
          "name": "to",
          "type": "address"
        },
        {
          "internalType": "uint256",
          "name": "tokenId",
          "type": "uint256"
        }
      ],
      "name": "transferFrom",
      "outputs": [],
      "stateMutability": "nonpayable",
      "type": "function"
    },
    {
      "inputs": [],
      "name": "unpause",
      "outputs": [],
      "stateMutability": "nonpayable",
      "type": "function"
    },
    {
      "inputs": [
        {
          "internalType": "address",
          "name": "newImplementation",
          "type": "address"
        }
      ],
      "name": "upgradeTo",
      "outputs": [],
      "stateMutability": "nonpayable",
      "type": "function"
    },
    {
      "inputs": [
        {
          "internalType": "address",
          "name": "newImplementation",
          "type": "address"
        },
        {
          "internalType": "bytes",
          "name": "data",
          "type": "bytes"
        }
      ],
      "name": "upgradeToAndCall",
      "outputs": [],
      "stateMutability": "payable",
      "type": "function"
    }
  ],
  "bytecode": "0x60a0604052306080523480156200001557600080fd5b50600054610100900460ff1615808015620000375750600054600160ff909116105b8062000067575062000054306200014160201b620014ef1760201c565b15801562000067575060005460ff166001145b620000cf5760405162461bcd60e51b815260206004820152602e60248201527f496e697469616c697a61626c653a20636f6e747261637420697320616c72656160448201526d191e481a5b9a5d1a585b1a5e995960921b606482015260840160405180910390fd5b6000805460ff191660011790558015620000f3576000805461ff0019166101001790555b80156200013a576000805461ff0019169055604051600181527f7f26b83ff96e1f2b6a682f133852f6798a09c465da95921460cefb38474024989060200160405180910390a15b5062000150565b6001600160a01b03163b151590565b6080516132d46200018860003960008181610ab201528181610af201528181610c7301528181610cb30152610dd501526132d46000f3fe6080604052600436106102255760003560e01c80635c975abb11610123578063a217fddf116100ab578063d547741f1161006f578063d547741f14610620578063e3c052e314610640578063e63ab1e914610662578063e985e9c514610684578063f72c0d8b146106cd57600080fd5b8063a217fddf14610589578063a22cb4651461059e578063b88d4fde146105be578063c07c73b4146105de578063c87b56dd1461060057600080fd5b806370a08231116100f257806370a082311461050a5780638129fc1c1461052a5780638456cb591461053f57806391d148541461055457806395d89b411461057457600080fd5b80635c975abb1461049d57806362f983a7146104b55780636352211e146104ca5780636a627842146104ea57600080fd5b80632f2ff15d116101b157806342842e0e1161017557806342842e0e1461042057806344df8e70146104405780634f1ef286146104555780634f6ccce71461046857806352d1902d1461048857600080fd5b80632f2ff15d1461038b5780632f745c59146103ab57806336568abe146103cb5780633659cfe6146103eb5780633f4ba83a1461040b57600080fd5b8063095ea7b3116101f8578063095ea7b3146102db57806318160ddd146102fb57806323b872dd1461031a578063248a9ca31461033a5780632e27c6361461036b57600080fd5b806301ffc9a71461022a57806302fe53051461025f57806306fdde0314610281578063081812fc146102a3575b600080fd5b34801561023657600080fd5b5061024a610245366004612a78565b6106ef565b60405190151581526020015b60405180910390f35b34801561026b57600080fd5b5061027f61027a366004612b21565b610700565b005b34801561028d57600080fd5b50610296610770565b6040516102569190612bc2565b3480156102af57600080fd5b506102c36102be366004612bd5565b610802565b6040516001600160a01b039091168152602001610256565b3480156102e757600080fd5b5061027f6102f6366004612c0a565b610829565b34801561030757600080fd5b5060cb545b604051908152602001610256565b34801561032657600080fd5b5061027f610335366004612c34565b61090c565b34801561034657600080fd5b5061030c610355366004612bd5565b600090815261012d602052604090206001015490565b34801561037757600080fd5b5061027f610386366004612c70565b61093d565b34801561039757600080fd5b5061027f6103a6366004612c8b565b610971565b3480156103b757600080fd5b5061030c6103c6366004612c0a565b610997565b3480156103d757600080fd5b5061027f6103e6366004612c8b565b610a2d565b3480156103f757600080fd5b5061027f610406366004612c70565b610aa7565b34801561041757600080fd5b5061027f610b87565b34801561042c57600080fd5b5061027f61043b366004612c34565b610ba7565b34801561044c57600080fd5b5061027f610bc2565b61027f610463366004612cd7565b610c68565b34801561047457600080fd5b5061030c610483366004612bd5565b610d35565b34801561049457600080fd5b5061030c610dc8565b3480156104a957600080fd5b5060fb5460ff1661024a565b3480156104c157600080fd5b50610296610e7b565b3480156104d657600080fd5b506102c36104e5366004612bd5565b610f0a565b3480156104f657600080fd5b5061027f610505366004612c70565b610f6a565b34801561051657600080fd5b5061030c610525366004612c70565b6110bd565b34801561053657600080fd5b5061027f611143565b34801561054b57600080fd5b5061027f611317565b34801561056057600080fd5b5061024a61056f366004612c8b565b611337565b34801561058057600080fd5b50610296611363565b34801561059557600080fd5b5061030c600081565b3480156105aa57600080fd5b5061027f6105b9366004612d25565b611372565b3480156105ca57600080fd5b5061027f6105d9366004612d61565b61137d565b3480156105ea57600080fd5b5061030c60008051602061327f83398151915281565b34801561060c57600080fd5b5061029661061b366004612bd5565b6113b5565b34801561062c57600080fd5b5061027f61063b366004612c8b565b6114c9565b34801561064c57600080fd5b5061030c60008051602061325f83398151915281565b34801561066e57600080fd5b5061030c60008051602061321883398151915281565b34801561069057600080fd5b5061024a61069f366004612dc9565b6001600160a01b039182166000908152606a6020908152604080832093909416825291909152205460ff1690565b3480156106d957600080fd5b5061030c6000805160206131d883398151915281565b60006106fa826114fe565b92915050565b610708611523565b60008051602061325f8339815191526107208161156b565b8151610734906101c3906020850190612993565b507f8e7c50e9ebd8c90d2b580315b45e3628b0eb30f21dfc7d305006dfe7f1bb712a826040516107649190612bc2565b60405180910390a15050565b60606065805461077f90612df3565b80601f01602080910402602001604051908101604052809291908181526020018280546107ab90612df3565b80156107f85780601f106107cd576101008083540402835291602001916107f8565b820191906000526020600020905b8154815290600101906020018083116107db57829003601f168201915b5050505050905090565b600061080d82611575565b506000908152606960205260409020546001600160a01b031690565b61084160008051602061325f83398151915233611337565b8061085f575061085f60008051602061327f83398151915233611337565b6108845760405162461bcd60e51b815260040161087b90612e2e565b60405180910390fd5b600061088f82610f0a565b9050806001600160a01b0316836001600160a01b031614156108fd5760405162461bcd60e51b815260206004820152602160248201527f4552433732313a20617070726f76616c20746f2063757272656e74206f776e656044820152603960f91b606482015260840161087b565b61090783836115d4565b505050565b610916338261167d565b6109325760405162461bcd60e51b815260040161087b90612e65565b6109078383836116fc565b6000805160206131d88339815191526109558161156b565b61096d60008051602061327f83398151915283611771565b5050565b600082815261012d602052604090206001015461098d8161156b565b6109078383611771565b60006109a2836110bd565b8210610a045760405162461bcd60e51b815260206004820152602b60248201527f455243373231456e756d657261626c653a206f776e657220696e646578206f7560448201526a74206f6620626f756e647360a81b606482015260840161087b565b506001600160a01b0391909116600090815260c960209081526040808320938352929052205490565b6001600160a01b0381163314610a9d5760405162461bcd60e51b815260206004820152602f60248201527f416363657373436f6e74726f6c3a2063616e206f6e6c792072656e6f756e636560448201526e103937b632b9903337b91039b2b63360891b606482015260840161087b565b61096d82826117f8565b306001600160a01b037f0000000000000000000000000000000000000000000000000000000000000000161415610af05760405162461bcd60e51b815260040161087b90612eb2565b7f00000000000000000000000000000000000000000000000000000000000000006001600160a01b0316610b396000805160206131f8833981519152546001600160a01b031690565b6001600160a01b031614610b5f5760405162461bcd60e51b815260040161087b90612efe565b610b6881611860565b60408051600080825260208201909252610b8491839190611878565b50565b600080516020613218833981519152610b9f8161156b565b610b846119e3565b6109078383836040518060200160405280600081525061137d565b60008051602061325f833981519152610bda8161156b565b6000610be560cb5490565b11610c325760405162461bcd60e51b815260206004820152601b60248201527f54686572652069736e27742061207365616c20746f206275726e210000000000604482015260640161087b565b610c3c6001611a35565b6040517f741f44986a58001c80345415c723423f8df6946e57af419dd5d73bad11ad99f090600090a150565b306001600160a01b037f0000000000000000000000000000000000000000000000000000000000000000161415610cb15760405162461bcd60e51b815260040161087b90612eb2565b7f00000000000000000000000000000000000000000000000000000000000000006001600160a01b0316610cfa6000805160206131f8833981519152546001600160a01b031690565b6001600160a01b031614610d205760405162461bcd60e51b815260040161087b90612efe565b610d2982611860565b61096d82826001611878565b6000610d4060cb5490565b8210610da35760405162461bcd60e51b815260206004820152602c60248201527f455243373231456e756d657261626c653a20676c6f62616c20696e646578206f60448201526b7574206f6620626f756e647360a01b606482015260840161087b565b60cb8281548110610db657610db6612f4a565b90600052602060002001549050919050565b6000306001600160a01b037f00000000000000000000000000000000000000000000000000000000000000001614610e685760405162461bcd60e51b815260206004820152603860248201527f555550535570677261646561626c653a206d757374206e6f742062652063616c60448201527f6c6564207468726f7567682064656c656761746563616c6c0000000000000000606482015260840161087b565b506000805160206131f883398151915290565b6101c38054610e8990612df3565b80601f0160208091040260200160405190810160405280929190818152602001828054610eb590612df3565b8015610f025780601f10610ed757610100808354040283529160200191610f02565b820191906000526020600020905b815481529060010190602001808311610ee557829003601f168201915b505050505081565b6000818152606760205260408120546001600160a01b0316806106fa5760405162461bcd60e51b8152602060048201526018602482015277115490cdcc8c4e881a5b9d985b1a59081d1bdad95b88125160421b604482015260640161087b565b610f72611523565b60008051602061325f833981519152610f8a8161156b565b60cb5415610fe45760405162461bcd60e51b815260206004820152602160248201527f41204368616e63656c6c6f72205365616c20416c7265616479204578697374736044820152602160f81b606482015260840161087b565b610fef826001611a56565b61108560016101c3805461100290612df3565b80601f016020809104026020016040519081016040528092919081815260200182805461102e90612df3565b801561107b5780601f106110505761010080835404028352916020019161107b565b820191906000526020600020905b81548152906001019060200180831161105e57829003601f168201915b5050505050611a70565b6040516001600160a01b038316907fb0e46a69295896fb0d923a1fa72500a6f76355bf48e37cac09fba5dfb082c34a90600090a25050565b60006001600160a01b0382166111275760405162461bcd60e51b815260206004820152602960248201527f4552433732313a2061646472657373207a65726f206973206e6f7420612076616044820152683634b21037bbb732b960b91b606482015260840161087b565b506001600160a01b031660009081526068602052604090205490565b600054610100900460ff16158080156111635750600054600160ff909116105b8061117d5750303b15801561117d575060005460ff166001145b6111e05760405162461bcd60e51b815260206004820152602e60248201527f496e697469616c697a61626c653a20636f6e747261637420697320616c72656160448201526d191e481a5b9a5d1a585b1a5e995960921b606482015260840161087b565b6000805460ff191660011790558015611203576000805461ff0019166101001790555b6112646040518060400160405280601781526020017f44414f6269204368616e63656c6c6f722773205365616c0000000000000000008152506040518060400160405280600a815260200169111053d0924814d1505360b21b815250611b0a565b61126c611b3b565b611274611b6a565b61127c611b6a565b611287600033611771565b61129f60008051602061321883398151915233611771565b6112b760008051602061325f83398151915233611771565b6112cf6000805160206131d883398151915233611771565b8015610b84576000805461ff0019169055604051600181527f7f26b83ff96e1f2b6a682f133852f6798a09c465da95921460cefb38474024989060200160405180910390a150565b60008051602061321883398151915261132f8161156b565b610b84611b91565b600091825261012d602090815260408084206001600160a01b0393909316845291905290205460ff1690565b60606066805461077f90612df3565b61096d338383611bce565b611387338361167d565b6113a35760405162461bcd60e51b815260040161087b90612e65565b6113af84848484611c33565b50505050565b6000818152606760205260409020546060906001600160a01b03166114365760405162461bcd60e51b815260206004820152603160248201527f45524337323155524953746f726167653a2055524920717565727920666f72206044820152703737b732bc34b9ba32b73a103a37b5b2b760791b606482015260840161087b565b6101c3805461144490612df3565b80601f016020809104026020016040519081016040528092919081815260200182805461147090612df3565b80156114bd5780601f10611492576101008083540402835291602001916114bd565b820191906000526020600020905b8154815290600101906020018083116114a057829003601f168201915b50505050509050919050565b600082815261012d60205260409020600101546114e58161156b565b61090783836117f8565b6001600160a01b03163b151590565b60006001600160e01b03198216637965db0b60e01b14806106fa57506106fa82611c66565b60fb5460ff16156115695760405162461bcd60e51b815260206004820152601060248201526f14185d5cd8589b194e881c185d5cd95960821b604482015260640161087b565b565b610b848133611c8b565b6000818152606760205260409020546001600160a01b0316610b845760405162461bcd60e51b8152602060048201526018602482015277115490cdcc8c4e881a5b9d985b1a59081d1bdad95b88125160421b604482015260640161087b565b6115ec60008051602061325f83398151915233611337565b8061160a575061160a60008051602061327f83398151915233611337565b6116265760405162461bcd60e51b815260040161087b90612e2e565b6116308282611ce4565b80826001600160a01b031661164483610f0a565b6001600160a01b03167f8c5be1e5ebec7d5bd14f71427d1e84f3dd0314c0f7b2291e5b200ac8c7c3b92560405160405180910390a45050565b60008061168983610f0a565b9050806001600160a01b0316846001600160a01b031614806116d057506001600160a01b038082166000908152606a602090815260408083209388168352929052205460ff165b806116f45750836001600160a01b03166116e984610802565b6001600160a01b0316145b949350505050565b60008051602061327f8339815191526117148161156b565b61172c60008051602061325f83398151915233611337565b8061174a575061174a60008051602061327f83398151915233611337565b6117665760405162461bcd60e51b815260040161087b90612e2e565b6113af848484611d19565b61177b8282611337565b61096d57600082815261012d602090815260408083206001600160a01b03851684529091529020805460ff191660011790556117b43390565b6001600160a01b0316816001600160a01b0316837f2f8788117e7eff1d82e926ec794901d17c78024a50270940304540a733656f0d60405160405180910390a45050565b6118028282611337565b1561096d57600082815261012d602090815260408083206001600160a01b0385168085529252808320805460ff1916905551339285917ff6391f5c32d9c69d2a47ea670b442974b53935d1edc7fd64eb21e047a839171b9190a45050565b6000805160206131d883398151915261096d8161156b565b7f4910fdfa16fed3260ed0e7147f7cc6da11a60208b5b9406d12a635614ffd91435460ff16156118ab5761090783611e88565b826001600160a01b03166352d1902d6040518163ffffffff1660e01b8152600401602060405180830381865afa925050508015611905575060408051601f3d908101601f1916820190925261190291810190612f60565b60015b6119685760405162461bcd60e51b815260206004820152602e60248201527f45524331393637557067726164653a206e657720696d706c656d656e7461746960448201526d6f6e206973206e6f74205555505360901b606482015260840161087b565b6000805160206131f883398151915281146119d75760405162461bcd60e51b815260206004820152602960248201527f45524331393637557067726164653a20756e737570706f727465642070726f786044820152681a58589b195555525160ba1b606482015260840161087b565b50610907838383611f24565b6119eb611f49565b60fb805460ff191690557f5db9ee0a495bf2e6ff9c91a7834c1ba4fdd244a5e8aa4e537bd38aeae4b073aa335b6040516001600160a01b03909116815260200160405180910390a1565b60008051602061325f833981519152611a4d8161156b565b61096d82611f92565b61096d828260405180602001604052806000815250611fd2565b6000828152606760205260409020546001600160a01b0316611aeb5760405162461bcd60e51b815260206004820152602e60248201527f45524337323155524953746f726167653a2055524920736574206f66206e6f6e60448201526d32bc34b9ba32b73a103a37b5b2b760911b606482015260840161087b565b6000828152609760209081526040909120825161090792840190612993565b600054610100900460ff16611b315760405162461bcd60e51b815260040161087b90612f79565b61096d8282612005565b600054610100900460ff16611b625760405162461bcd60e51b815260040161087b90612f79565b611569612053565b600054610100900460ff166115695760405162461bcd60e51b815260040161087b90612f79565b611b99611523565b60fb805460ff191660011790557f62e78cea01bee320cd4e420270b5ea74000d11b0c9f74754ebdbfc544b05a258611a183390565b60405162461bcd60e51b815260206004820152603460248201527f536574417070726f76616c466f72416c6c2064697361626c656420666f7220746044820152731a194810da185b98d95b1b1bdc89dcc814d9585b60621b606482015260840161087b565b611c3e8484846116fc565b611c4a84848484612086565b6113af5760405162461bcd60e51b815260040161087b90612fc4565b60006001600160e01b0319821663780e9d6360e01b14806106fa57506106fa82612184565b611c958282611337565b61096d57611ca2816121d4565b611cad8360206121e6565b604051602001611cbe929190613016565b60408051601f198184030181529082905262461bcd60e51b825261087b91600401612bc2565b600081815260696020526040902080546001600160a01b0319166001600160a01b038416908117909155819061164482610f0a565b826001600160a01b0316611d2c82610f0a565b6001600160a01b031614611d525760405162461bcd60e51b815260040161087b9061308b565b6001600160a01b038216611db45760405162461bcd60e51b8152602060048201526024808201527f4552433732313a207472616e7366657220746f20746865207a65726f206164646044820152637265737360e01b606482015260840161087b565b611dbf838383612389565b826001600160a01b0316611dd282610f0a565b6001600160a01b031614611df85760405162461bcd60e51b815260040161087b9061308b565b600081815260696020908152604080832080546001600160a01b03199081169091556001600160a01b0387811680865260688552838620805460001901905590871680865283862080546001019055868652606790945282852080549092168417909155905184937fddf252ad1be2c89b69c2b068fc378daa952ba7f163c4a11628f55a4df523b3ef91a4505050565b6001600160a01b0381163b611ef55760405162461bcd60e51b815260206004820152602d60248201527f455243313936373a206e657720696d706c656d656e746174696f6e206973206e60448201526c1bdd08184818dbdb9d1c9858dd609a1b606482015260840161087b565b6000805160206131f883398151915280546001600160a01b0319166001600160a01b0392909216919091179055565b611f2d8361239c565b600082511180611f3a5750805b15610907576113af83836123dc565b60fb5460ff166115695760405162461bcd60e51b815260206004820152601460248201527314185d5cd8589b194e881b9bdd081c185d5cd95960621b604482015260640161087b565b611f9b816124d0565b60008181526097602052604090208054611fb490612df3565b159050610b84576000818152609760205260408120610b8491612a17565b611fdc8383612571565b611fe96000848484612086565b6109075760405162461bcd60e51b815260040161087b90612fc4565b600054610100900460ff1661202c5760405162461bcd60e51b815260040161087b90612f79565b815161203f906065906020850190612993565b508051610907906066906020840190612993565b600054610100900460ff1661207a5760405162461bcd60e51b815260040161087b90612f79565b60fb805460ff19169055565b60006001600160a01b0384163b1561217957604051630a85bd0160e11b81526001600160a01b0385169063150b7a02906120ca9033908990889088906004016130d0565b6020604051808303816000875af1925050508015612105575060408051601f3d908101601f191682019092526121029181019061310d565b60015b61215f573d808015612133576040519150601f19603f3d011682016040523d82523d6000602084013e612138565b606091505b5080516121575760405162461bcd60e51b815260040161087b90612fc4565b805181602001fd5b6001600160e01b031916630a85bd0160e11b1490506116f4565b506001949350505050565b60006001600160e01b031982166380ac58cd60e01b14806121b557506001600160e01b03198216635b5e139f60e01b145b806106fa57506301ffc9a760e01b6001600160e01b03198316146106fa565b60606106fa6001600160a01b03831660145b606060006121f5836002613140565b61220090600261315f565b67ffffffffffffffff81111561221857612218612a95565b6040519080825280601f01601f191660200182016040528015612242576020820181803683370190505b509050600360fc1b8160008151811061225d5761225d612f4a565b60200101906001600160f81b031916908160001a905350600f60fb1b8160018151811061228c5761228c612f4a565b60200101906001600160f81b031916908160001a90535060006122b0846002613140565b6122bb90600161315f565b90505b6001811115612333576f181899199a1a9b1b9c1cb0b131b232b360811b85600f16601081106122ef576122ef612f4a565b1a60f81b82828151811061230557612305612f4a565b60200101906001600160f81b031916908160001a90535060049490941c9361232c81613177565b90506122be565b5083156123825760405162461bcd60e51b815260206004820181905260248201527f537472696e67733a20686578206c656e67746820696e73756666696369656e74604482015260640161087b565b9392505050565b612391611523565b610907838383612708565b6123a581611e88565b6040516001600160a01b038216907fbc7cd75a20ee27fd9adebab32041f755214dbc6bffa90cc0225b39da2e5c2d3b90600090a250565b60606001600160a01b0383163b6124445760405162461bcd60e51b815260206004820152602660248201527f416464726573733a2064656c65676174652063616c6c20746f206e6f6e2d636f6044820152651b9d1c9858dd60d21b606482015260840161087b565b600080846001600160a01b03168460405161245f919061318e565b600060405180830381855af49150503d806000811461249a576040519150601f19603f3d011682016040523d82523d6000602084013e61249f565b606091505b50915091506124c78282604051806060016040528060278152602001613238602791396127c0565b95945050505050565b60006124db82610f0a565b90506124e981600084612389565b6124f282610f0a565b600083815260696020908152604080832080546001600160a01b03199081169091556001600160a01b0385168085526068845282852080546000190190558785526067909352818420805490911690555192935084927fddf252ad1be2c89b69c2b068fc378daa952ba7f163c4a11628f55a4df523b3ef908390a45050565b6001600160a01b0382166125c75760405162461bcd60e51b815260206004820181905260248201527f4552433732313a206d696e7420746f20746865207a65726f2061646472657373604482015260640161087b565b6000818152606760205260409020546001600160a01b03161561262c5760405162461bcd60e51b815260206004820152601c60248201527f4552433732313a20746f6b656e20616c7265616479206d696e74656400000000604482015260640161087b565b61263860008383612389565b6000818152606760205260409020546001600160a01b03161561269d5760405162461bcd60e51b815260206004820152601c60248201527f4552433732313a20746f6b656e20616c7265616479206d696e74656400000000604482015260640161087b565b6001600160a01b038216600081815260686020908152604080832080546001019055848352606790915280822080546001600160a01b0319168417905551839291907fddf252ad1be2c89b69c2b068fc378daa952ba7f163c4a11628f55a4df523b3ef908290a45050565b6001600160a01b0383166127635761275e8160cb8054600083815260cc60205260408120829055600182018355919091527fa7ce836d032b2bf62b7e2097a8e0a6d8aeb35405ad15271e96d3b0188a1d06fb0155565b612786565b816001600160a01b0316836001600160a01b0316146127865761278683826127d9565b6001600160a01b03821661279d5761090781612876565b826001600160a01b0316826001600160a01b031614610907576109078282612925565b606083156127cf575081612382565b6123828383612969565b600060016127e6846110bd565b6127f091906131aa565b600083815260ca6020526040902054909150808214612843576001600160a01b038416600090815260c960209081526040808320858452825280832054848452818420819055835260ca90915290208190555b50600091825260ca602090815260408084208490556001600160a01b03909416835260c981528383209183525290812055565b60cb54600090612888906001906131aa565b600083815260cc602052604081205460cb80549394509092849081106128b0576128b0612f4a565b906000526020600020015490508060cb83815481106128d1576128d1612f4a565b600091825260208083209091019290925582815260cc909152604080822084905585825281205560cb805480612909576129096131c1565b6001900381819060005260206000200160009055905550505050565b6000612930836110bd565b6001600160a01b03909316600090815260c960209081526040808320868452825280832085905593825260ca9052919091209190915550565b8151156129795781518083602001fd5b8060405162461bcd60e51b815260040161087b9190612bc2565b82805461299f90612df3565b90600052602060002090601f0160209004810192826129c15760008555612a07565b82601f106129da57805160ff1916838001178555612a07565b82800160010185558215612a07579182015b82811115612a075782518255916020019190600101906129ec565b50612a13929150612a4d565b5090565b508054612a2390612df3565b6000825580601f10612a33575050565b601f016020900490600052602060002090810190610b8491905b5b80821115612a135760008155600101612a4e565b6001600160e01b031981168114610b8457600080fd5b600060208284031215612a8a57600080fd5b813561238281612a62565b634e487b7160e01b600052604160045260246000fd5b600067ffffffffffffffff80841115612ac657612ac6612a95565b604051601f8501601f19908116603f01168101908282118183101715612aee57612aee612a95565b81604052809350858152868686011115612b0757600080fd5b858560208301376000602087830101525050509392505050565b600060208284031215612b3357600080fd5b813567ffffffffffffffff811115612b4a57600080fd5b8201601f81018413612b5b57600080fd5b6116f484823560208401612aab565b60005b83811015612b85578181015183820152602001612b6d565b838111156113af5750506000910152565b60008151808452612bae816020860160208601612b6a565b601f01601f19169290920160200192915050565b6020815260006123826020830184612b96565b600060208284031215612be757600080fd5b5035919050565b80356001600160a01b0381168114612c0557600080fd5b919050565b60008060408385031215612c1d57600080fd5b612c2683612bee565b946020939093013593505050565b600080600060608486031215612c4957600080fd5b612c5284612bee565b9250612c6060208501612bee565b9150604084013590509250925092565b600060208284031215612c8257600080fd5b61238282612bee565b60008060408385031215612c9e57600080fd5b82359150612cae60208401612bee565b90509250929050565b600082601f830112612cc857600080fd5b61238283833560208501612aab565b60008060408385031215612cea57600080fd5b612cf383612bee565b9150602083013567ffffffffffffffff811115612d0f57600080fd5b612d1b85828601612cb7565b9150509250929050565b60008060408385031215612d3857600080fd5b612d4183612bee565b915060208301358015158114612d5657600080fd5b809150509250929050565b60008060008060808587031215612d7757600080fd5b612d8085612bee565b9350612d8e60208601612bee565b925060408501359150606085013567ffffffffffffffff811115612db157600080fd5b612dbd87828801612cb7565b91505092959194509250565b60008060408385031215612ddc57600080fd5b612de583612bee565b9150612cae60208401612bee565b600181811c90821680612e0757607f821691505b60208210811415612e2857634e487b7160e01b600052602260045260246000fd5b50919050565b6020808252601d908201527f556e617574686f72697a6564205472616e7366657220417474656d7074000000604082015260600190565b6020808252602d908201527f4552433732313a2063616c6c6572206973206e6f7420746f6b656e206f776e6560408201526c1c881bdc88185c1c1c9bdd9959609a1b606082015260800190565b6020808252602c908201527f46756e6374696f6e206d7573742062652063616c6c6564207468726f7567682060408201526b19195b1959d85d1958d85b1b60a21b606082015260800190565b6020808252602c908201527f46756e6374696f6e206d7573742062652063616c6c6564207468726f7567682060408201526b6163746976652070726f787960a01b606082015260800190565b634e487b7160e01b600052603260045260246000fd5b600060208284031215612f7257600080fd5b5051919050565b6020808252602b908201527f496e697469616c697a61626c653a20636f6e7472616374206973206e6f74206960408201526a6e697469616c697a696e6760a81b606082015260800190565b60208082526032908201527f4552433732313a207472616e7366657220746f206e6f6e20455243373231526560408201527131b2b4bb32b91034b6b83632b6b2b73a32b960711b606082015260800190565b7f416363657373436f6e74726f6c3a206163636f756e742000000000000000000081526000835161304e816017850160208801612b6a565b7001034b99036b4b9b9b4b733903937b6329607d1b601791840191820152835161307f816028840160208801612b6a565b01602801949350505050565b60208082526025908201527f4552433732313a207472616e736665722066726f6d20696e636f72726563742060408201526437bbb732b960d91b606082015260800190565b6001600160a01b038581168252841660208201526040810183905260806060820181905260009061310390830184612b96565b9695505050505050565b60006020828403121561311f57600080fd5b815161238281612a62565b634e487b7160e01b600052601160045260246000fd5b600081600019048311821515161561315a5761315a61312a565b500290565b600082198211156131725761317261312a565b500190565b6000816131865761318661312a565b506000190190565b600082516131a0818460208701612b6a565b9190910192915050565b6000828210156131bc576131bc61312a565b500390565b634e487b7160e01b600052603160045260246000fdfe189ab7a9244df0848122154315af71fe140f3db0fe014031783b0946b8c9d2e3360894a13ba1a3210667c828492db98dca3e2076cc3735a920a3ca505d382bbc65d7a28e3265b37a6474929f336521b332c1681b933f6cb9f3376673440d862a416464726573733a206c6f772d6c6576656c2064656c65676174652063616c6c206661696c6564b71ecf5ca3d7e478c131fba00132e7a5f1511f1855e756eb41b6d3ed059d7c6a32264ca5394cc69f2e96dc72bcb2b0481b48dd7d7b68c0c7face358555d545b3a2646970667358221220654fc8378940e134153a61ad2a0ed549a8c7271488761f8739330905512f2c1764736f6c634300080a0033",
  "linkReferences": {},
  "deployedLinkReferences": {}
}