{
  "_format": "hh-sol-artifact-1",
  "contractName": "DaobiVoteContract",
  "sourceName": "contracts/DaobiVoteContract.sol",
  "abi": [
    {
      "inputs": [],
      "stateMutability": "nonpayable",
      "type": "constructor"
    },
    {
      "anonymous": false,
      "inputs": [
        {
          "indexed": false,
          "internalType": "address",
          "name": "previousAdmin",
          "type": "address"
        },
        {
          "indexed": false,
          "internalType": "address",
          "name": "newAdmin",
          "type": "address"
        }
      ],
      "name": "AdminChanged",
      "type": "event"
    },
    {
      "anonymous": false,
      "inputs": [
        {
          "indexed": true,
          "internalType": "address",
          "name": "owner",
          "type": "address"
        },
        {
          "indexed": true,
          "internalType": "address",
          "name": "approved",
          "type": "address"
        },
        {
          "indexed": true,
          "internalType": "uint256",
          "name": "tokenId",
          "type": "uint256"
        }
      ],
      "name": "Approval",
      "type": "event"
    },
    {
      "anonymous": false,
      "inputs": [
        {
          "indexed": true,
          "internalType": "address",
          "name": "owner",
          "type": "address"
        },
        {
          "indexed": true,
          "internalType": "address",
          "name": "operator",
          "type": "address"
        },
        {
          "indexed": false,
          "internalType": "bool",
          "name": "approved",
          "type": "bool"
        }
      ],
      "name": "ApprovalForAll",
      "type": "event"
    },
    {
      "anonymous": false,
      "inputs": [
        {
          "indexed": true,
          "internalType": "address",
          "name": "beacon",
          "type": "address"
        }
      ],
      "name": "BeaconUpgraded",
      "type": "event"
    },
    {
      "anonymous": false,
      "inputs": [
        {
          "indexed": true,
          "internalType": "address",
          "name": "burnee",
          "type": "address"
        }
      ],
      "name": "Burnt",
      "type": "event"
    },
    {
      "anonymous": false,
      "inputs": [
        {
          "indexed": false,
          "internalType": "uint8",
          "name": "version",
          "type": "uint8"
        }
      ],
      "name": "Initialized",
      "type": "event"
    },
    {
      "anonymous": false,
      "inputs": [
        {
          "indexed": false,
          "internalType": "string",
          "name": "newURI",
          "type": "string"
        }
      ],
      "name": "NFTRetarget",
      "type": "event"
    },
    {
      "anonymous": false,
      "inputs": [
        {
          "indexed": true,
          "internalType": "address",
          "name": "newDBvt",
          "type": "address"
        }
      ],
      "name": "NewToken",
      "type": "event"
    },
    {
      "anonymous": false,
      "inputs": [
        {
          "indexed": false,
          "internalType": "address",
          "name": "account",
          "type": "address"
        }
      ],
      "name": "Paused",
      "type": "event"
    },
    {
      "anonymous": false,
      "inputs": [
        {
          "indexed": true,
          "internalType": "address",
          "name": "reclVoter",
          "type": "address"
        }
      ],
      "name": "Reclused",
      "type": "event"
    },
    {
      "anonymous": false,
      "inputs": [
        {
          "indexed": true,
          "internalType": "address",
          "name": "regVoter",
          "type": "address"
        },
        {
          "indexed": false,
          "internalType": "bytes6",
          "name": "nickname",
          "type": "bytes6"
        },
        {
          "indexed": false,
          "internalType": "address",
          "name": "initVote",
          "type": "address"
        }
      ],
      "name": "Registered",
      "type": "event"
    },
    {
      "anonymous": false,
      "inputs": [
        {
          "indexed": true,
          "internalType": "bytes32",
          "name": "role",
          "type": "bytes32"
        },
        {
          "indexed": true,
          "internalType": "bytes32",
          "name": "previousAdminRole",
          "type": "bytes32"
        },
        {
          "indexed": true,
          "internalType": "bytes32",
          "name": "newAdminRole",
          "type": "bytes32"
        }
      ],
      "name": "RoleAdminChanged",
      "type": "event"
    },
    {
      "anonymous": false,
      "inputs": [
        {
          "indexed": true,
          "internalType": "bytes32",
          "name": "role",
          "type": "bytes32"
        },
        {
          "indexed": true,
          "internalType": "address",
          "name": "account",
          "type": "address"
        },
        {
          "indexed": true,
          "internalType": "address",
          "name": "sender",
          "type": "address"
        }
      ],
      "name": "RoleGranted",
      "type": "event"
    },
    {
      "anonymous": false,
      "inputs": [
        {
          "indexed": true,
          "internalType": "bytes32",
          "name": "role",
          "type": "bytes32"
        },
        {
          "indexed": true,
          "internalType": "address",
          "name": "account",
          "type": "address"
        },
        {
          "indexed": true,
          "internalType": "address",
          "name": "sender",
          "type": "address"
        }
      ],
      "name": "RoleRevoked",
      "type": "event"
    },
    {
      "anonymous": false,
      "inputs": [
        {
          "indexed": true,
          "internalType": "address",
          "name": "burner",
          "type": "address"
        }
      ],
      "name": "SelfBurnt",
      "type": "event"
    },
    {
      "anonymous": false,
      "inputs": [
        {
          "indexed": true,
          "internalType": "address",
          "name": "from",
          "type": "address"
        },
        {
          "indexed": true,
          "internalType": "address",
          "name": "to",
          "type": "address"
        },
        {
          "indexed": true,
          "internalType": "uint256",
          "name": "tokenId",
          "type": "uint256"
        }
      ],
      "name": "Transfer",
      "type": "event"
    },
    {
      "anonymous": false,
      "inputs": [
        {
          "indexed": false,
          "internalType": "address",
          "name": "account",
          "type": "address"
        }
      ],
      "name": "Unpaused",
      "type": "event"
    },
    {
      "anonymous": false,
      "inputs": [
        {
          "indexed": true,
          "internalType": "address",
          "name": "implementation",
          "type": "address"
        }
      ],
      "name": "Upgraded",
      "type": "event"
    },
    {
      "anonymous": false,
      "inputs": [
        {
          "indexed": true,
          "internalType": "address",
          "name": "voter",
          "type": "address"
        },
        {
          "indexed": true,
          "internalType": "address",
          "name": "votee",
          "type": "address"
        }
      ],
      "name": "Voted",
      "type": "event"
    },
    {
      "inputs": [],
      "name": "BURNER_ROLE",
      "outputs": [
        {
          "internalType": "bytes32",
          "name": "",
          "type": "bytes32"
        }
      ],
      "stateMutability": "view",
      "type": "function"
    },
    {
      "inputs": [],
      "name": "DEFAULT_ADMIN_ROLE",
      "outputs": [
        {
          "internalType": "bytes32",
          "name": "",
          "type": "bytes32"
        }
      ],
      "stateMutability": "view",
      "type": "function"
    },
    {
      "inputs": [],
      "name": "MINTER_ROLE",
      "outputs": [
        {
          "internalType": "bytes32",
          "name": "",
          "type": "bytes32"
        }
      ],
      "stateMutability": "view",
      "type": "function"
    },
    {
      "inputs": [],
      "name": "NFT_MANAGER",
      "outputs": [
        {
          "internalType": "bytes32",
          "name": "",
          "type": "bytes32"
        }
      ],
      "stateMutability": "view",
      "type": "function"
    },
    {
      "inputs": [],
      "name": "PAUSER_ROLE",
      "outputs": [
        {
          "internalType": "bytes32",
          "name": "",
          "type": "bytes32"
        }
      ],
      "stateMutability": "view",
      "type": "function"
    },
    {
      "inputs": [],
      "name": "UPGRADER_ROLE",
      "outputs": [
        {
          "internalType": "bytes32",
          "name": "",
          "type": "bytes32"
        }
      ],
      "stateMutability": "view",
      "type": "function"
    },
    {
      "inputs": [],
      "name": "URIaddr",
      "outputs": [
        {
          "internalType": "string",
          "name": "",
          "type": "string"
        }
      ],
      "stateMutability": "view",
      "type": "function"
    },
    {
      "inputs": [
        {
          "internalType": "address",
          "name": "to",
          "type": "address"
        },
        {
          "internalType": "uint256",
          "name": "tokenId",
          "type": "uint256"
        }
      ],
      "name": "approve",
      "outputs": [],
      "stateMutability": "nonpayable",
      "type": "function"
    },
    {
      "inputs": [
        {
          "internalType": "address",
          "name": "_voter",
          "type": "address"
        }
      ],
      "name": "assessVotes",
      "outputs": [
        {
          "internalType": "uint40",
          "name": "",
          "type": "uint40"
        }
      ],
      "stateMutability": "view",
      "type": "function"
    },
    {
      "inputs": [
        {
          "internalType": "address",
          "name": "owner",
          "type": "address"
        }
      ],
      "name": "balanceOf",
      "outputs": [
        {
          "internalType": "uint256",
          "name": "",
          "type": "uint256"
        }
      ],
      "stateMutability": "view",
      "type": "function"
    },
    {
      "inputs": [
        {
          "internalType": "address",
          "name": "_account",
          "type": "address"
        }
      ],
      "name": "burn",
      "outputs": [],
      "stateMutability": "nonpayable",
      "type": "function"
    },
    {
      "inputs": [
        {
          "internalType": "address",
          "name": "_voter",
          "type": "address"
        }
      ],
      "name": "checkStatus",
      "outputs": [
        {
          "internalType": "bool",
          "name": "",
          "type": "bool"
        }
      ],
      "stateMutability": "view",
      "type": "function"
    },
    {
      "inputs": [
        {
          "internalType": "address",
          "name": "_voter",
          "type": "address"
        }
      ],
      "name": "getAlias",
      "outputs": [
        {
          "internalType": "bytes6",
          "name": "",
          "type": "bytes6"
        }
      ],
      "stateMutability": "view",
      "type": "function"
    },
    {
      "inputs": [
        {
          "internalType": "uint256",
          "name": "tokenId",
          "type": "uint256"
        }
      ],
      "name": "getApproved",
      "outputs": [
        {
          "internalType": "address",
          "name": "",
          "type": "address"
        }
      ],
      "stateMutability": "view",
      "type": "function"
    },
    {
      "inputs": [
        {
          "internalType": "bytes32",
          "name": "role",
          "type": "bytes32"
        }
      ],
      "name": "getRoleAdmin",
      "outputs": [
        {
          "internalType": "bytes32",
          "name": "",
          "type": "bytes32"
        }
      ],
      "stateMutability": "view",
      "type": "function"
    },
    {
      "inputs": [
        {
          "internalType": "bytes32",
          "name": "role",
          "type": "bytes32"
        },
        {
          "internalType": "address",
          "name": "account",
          "type": "address"
        }
      ],
      "name": "grantRole",
      "outputs": [],
      "stateMutability": "nonpayable",
      "type": "function"
    },
    {
      "inputs": [
        {
          "internalType": "bytes32",
          "name": "role",
          "type": "bytes32"
        },
        {
          "internalType": "address",
          "name": "account",
          "type": "address"
        }
      ],
      "name": "hasRole",
      "outputs": [
        {
          "internalType": "bool",
          "name": "",
          "type": "bool"
        }
      ],
      "stateMutability": "view",
      "type": "function"
    },
    {
      "inputs": [],
      "name": "initialize",
      "outputs": [],
      "stateMutability": "nonpayable",
      "type": "function"
    },
    {
      "inputs": [
        {
          "internalType": "address",
          "name": "owner",
          "type": "address"
        },
        {
          "internalType": "address",
          "name": "operator",
          "type": "address"
        }
      ],
      "name": "isApprovedForAll",
      "outputs": [
        {
          "internalType": "bool",
          "name": "",
          "type": "bool"
        }
      ],
      "stateMutability": "view",
      "type": "function"
    },
    {
      "inputs": [
        {
          "internalType": "address",
          "name": "to",
          "type": "address"
        }
      ],
      "name": "mint",
      "outputs": [],
      "stateMutability": "nonpayable",
      "type": "function"
    },
    {
      "inputs": [],
      "name": "name",
      "outputs": [
        {
          "internalType": "string",
          "name": "",
          "type": "string"
        }
      ],
      "stateMutability": "view",
      "type": "function"
    },
    {
      "inputs": [
        {
          "internalType": "uint256",
          "name": "tokenId",
          "type": "uint256"
        }
      ],
      "name": "ownerOf",
      "outputs": [
        {
          "internalType": "address",
          "name": "",
          "type": "address"
        }
      ],
      "stateMutability": "view",
      "type": "function"
    },
    {
      "inputs": [],
      "name": "pause",
      "outputs": [],
      "stateMutability": "nonpayable",
      "type": "function"
    },
    {
      "inputs": [],
      "name": "paused",
      "outputs": [
        {
          "internalType": "bool",
          "name": "",
          "type": "bool"
        }
      ],
      "stateMutability": "view",
      "type": "function"
    },
    {
      "inputs": [],
      "name": "proxiableUUID",
      "outputs": [
        {
          "internalType": "bytes32",
          "name": "",
          "type": "bytes32"
        }
      ],
      "stateMutability": "view",
      "type": "function"
    },
    {
      "inputs": [],
      "name": "recluse",
      "outputs": [],
      "stateMutability": "nonpayable",
      "type": "function"
    },
    {
      "inputs": [],
      "name": "refreshTokenURI",
      "outputs": [],
      "stateMutability": "nonpayable",
      "type": "function"
    },
    {
      "inputs": [
        {
          "internalType": "address",
          "name": "_initialVote",
          "type": "address"
        },
        {
          "internalType": "bytes6",
          "name": "_name",
          "type": "bytes6"
        }
      ],
      "name": "register",
      "outputs": [],
      "stateMutability": "nonpayable",
      "type": "function"
    },
    {
      "inputs": [
        {
          "internalType": "bytes32",
          "name": "role",
          "type": "bytes32"
        },
        {
          "internalType": "address",
          "name": "account",
          "type": "address"
        }
      ],
      "name": "renounceRole",
      "outputs": [],
      "stateMutability": "nonpayable",
      "type": "function"
    },
    {
      "inputs": [
        {
          "internalType": "bytes32",
          "name": "role",
          "type": "bytes32"
        },
        {
          "internalType": "address",
          "name": "account",
          "type": "address"
        }
      ],
      "name": "revokeRole",
      "outputs": [],
      "stateMutability": "nonpayable",
      "type": "function"
    },
    {
      "inputs": [
        {
          "internalType": "address",
          "name": "from",
          "type": "address"
        },
        {
          "internalType": "address",
          "name": "to",
          "type": "address"
        },
        {
          "internalType": "uint256",
          "name": "tokenId",
          "type": "uint256"
        }
      ],
      "name": "safeTransferFrom",
      "outputs": [],
      "stateMutability": "nonpayable",
      "type": "function"
    },
    {
      "inputs": [
        {
          "internalType": "address",
          "name": "from",
          "type": "address"
        },
        {
          "internalType": "address",
          "name": "to",
          "type": "address"
        },
        {
          "internalType": "uint256",
          "name": "tokenId",
          "type": "uint256"
        },
        {
          "internalType": "bytes",
          "name": "data",
          "type": "bytes"
        }
      ],
      "name": "safeTransferFrom",
      "outputs": [],
      "stateMutability": "nonpayable",
      "type": "function"
    },
    {
      "inputs": [
        {
          "internalType": "address",
          "name": "_voter",
          "type": "address"
        }
      ],
      "name": "seeBallot",
      "outputs": [
        {
          "internalType": "address",
          "name": "",
          "type": "address"
        }
      ],
      "stateMutability": "view",
      "type": "function"
    },
    {
      "inputs": [],
      "name": "selfImmolate",
      "outputs": [],
      "stateMutability": "nonpayable",
      "type": "function"
    },
    {
      "inputs": [
        {
          "internalType": "address",
          "name": "operator",
          "type": "address"
        },
        {
          "internalType": "bool",
          "name": "approved",
          "type": "bool"
        }
      ],
      "name": "setApprovalForAll",
      "outputs": [],
      "stateMutability": "nonpayable",
      "type": "function"
    },
    {
      "inputs": [
        {
          "internalType": "string",
          "name": "newURI",
          "type": "string"
        }
      ],
      "name": "setURI",
      "outputs": [],
      "stateMutability": "nonpayable",
      "type": "function"
    },
    {
      "inputs": [
        {
          "internalType": "bytes4",
          "name": "interfaceId",
          "type": "bytes4"
        }
      ],
      "name": "supportsInterface",
      "outputs": [
        {
          "internalType": "bool",
          "name": "",
          "type": "bool"
        }
      ],
      "stateMutability": "view",
      "type": "function"
    },
    {
      "inputs": [],
      "name": "symbol",
      "outputs": [
        {
          "internalType": "string",
          "name": "",
          "type": "string"
        }
      ],
      "stateMutability": "view",
      "type": "function"
    },
    {
      "inputs": [
        {
          "internalType": "uint256",
          "name": "tokenId",
          "type": "uint256"
        }
      ],
      "name": "tokenURI",
      "outputs": [
        {
          "internalType": "string",
          "name": "",
          "type": "string"
        }
      ],
      "stateMutability": "view",
      "type": "function"
    },
    {
      "inputs": [
        {
          "internalType": "address",
          "name": "from",
          "type": "address"
        },
        {
          "internalType": "address",
          "name": "to",
          "type": "address"
        },
        {
          "internalType": "uint256",
          "name": "tokenId",
          "type": "uint256"
        }
      ],
      "name": "transferFrom",
      "outputs": [],
      "stateMutability": "nonpayable",
      "type": "function"
    },
    {
      "inputs": [],
      "name": "unpause",
      "outputs": [],
      "stateMutability": "nonpayable",
      "type": "function"
    },
    {
      "inputs": [
        {
          "internalType": "address",
          "name": "newImplementation",
          "type": "address"
        }
      ],
      "name": "upgradeTo",
      "outputs": [],
      "stateMutability": "nonpayable",
      "type": "function"
    },
    {
      "inputs": [
        {
          "internalType": "address",
          "name": "newImplementation",
          "type": "address"
        },
        {
          "internalType": "bytes",
          "name": "data",
          "type": "bytes"
        }
      ],
      "name": "upgradeToAndCall",
      "outputs": [],
      "stateMutability": "payable",
      "type": "function"
    },
    {
      "inputs": [
        {
          "internalType": "address",
          "name": "_voteFor",
          "type": "address"
        }
      ],
      "name": "vote",
      "outputs": [],
      "stateMutability": "nonpayable",
      "type": "function"
    },
    {
      "inputs": [
        {
          "internalType": "address",
          "name": "",
          "type": "address"
        }
      ],
      "name": "voterRegistry",
      "outputs": [
        {
          "internalType": "bool",
          "name": "serving",
          "type": "bool"
        },
        {
          "internalType": "address",
          "name": "votedFor",
          "type": "address"
        },
        {
          "internalType": "uint40",
          "name": "votesAccrued",
          "type": "uint40"
        },
        {
          "internalType": "bytes6",
          "name": "courtName",
          "type": "bytes6"
        }
      ],
      "stateMutability": "view",
      "type": "function"
    }
  ],
  "bytecode": "0x60a0604052306080523480156200001557600080fd5b50600054610100900460ff1615808015620000375750600054600160ff909116105b8062000067575062000054306200014160201b62001f0a1760201c565b15801562000067575060005460ff166001145b620000cf5760405162461bcd60e51b815260206004820152602e60248201527f496e697469616c697a61626c653a20636f6e747261637420697320616c72656160448201526d191e481a5b9a5d1a585b1a5e995960921b606482015260840160405180910390fd5b6000805460ff191660011790558015620000f3576000805461ff0019166101001790555b80156200013a576000805461ff0019169055604051600181527f7f26b83ff96e1f2b6a682f133852f6798a09c465da95921460cefb38474024989060200160405180910390a15b5062000150565b6001600160a01b03163b151590565b608051613852620001886000396000818161102b0152818161106b0152818161114601528181611186015261121501526138526000f3fe6080604052600436106102725760003560e01c80636352211e1161014f578063a22cb465116100c1578063d547741f1161007a578063d547741f14610874578063da4e105d14610894578063e63ab1e9146108d3578063e64e4db9146108f5578063e985e9c51461090a578063f72c0d8b1461095357600080fd5b8063a22cb46514610797578063b48cb73a146107b7578063b7ce1752146107cc578063b88d4fde14610800578063c87b56dd14610820578063d53913931461084057600080fd5b80638456cb59116101135780638456cb59146106be57806389afcb44146106d357806391d14854146106f357806395d89b411461071357806399900d1114610728578063a217fddf1461078257600080fd5b80636352211e146106295780636a627842146106495780636dd7d8ea1461066957806370a08231146106895780638129fc1c146106a957600080fd5b80632f2ff15d116101e857806342842e0e116101ac57806342842e0e146105195780634763d4e7146105395780634f1ef286146105d457806352d1902d146105e75780635c975abb146105fc57806362f983a71461061457600080fd5b80632f2ff15d1461046a578063340190ec1461048a57806336568abe146104c45780633659cfe6146104e45780633f4ba83a1461050457600080fd5b80630b5f38251161023a5780630b5f38251461034857806323b872dd1461035d578063248a9ca31461037d578063248d9a4b146103bb578063282c51f3146104165780632cdbe1eb1461044a57600080fd5b806301ffc9a71461027757806302fe5305146102ac57806306fdde03146102ce578063081812fc146102f0578063095ea7b314610328575b600080fd5b34801561028357600080fd5b50610297610292366004613080565b610987565b60405190151581526020015b60405180910390f35b3480156102b857600080fd5b506102cc6102c7366004613129565b610998565b005b3480156102da57600080fd5b506102e3610a1a565b6040516102a391906131ca565b3480156102fc57600080fd5b5061031061030b3660046131dd565b610aac565b6040516001600160a01b0390911681526020016102a3565b34801561033457600080fd5b506102cc610343366004613212565b610ad3565b34801561035457600080fd5b506102cc610bee565b34801561036957600080fd5b506102cc61037836600461323c565b610d05565b34801561038957600080fd5b506103ad6103983660046131dd565b600090815260fb602052604090206001015490565b6040519081526020016102a3565b3480156103c757600080fd5b506104006103d6366004613278565b6001600160a01b031660009081526101916020526040902054600160a81b900464ffffffffff1690565b60405164ffffffffff90911681526020016102a3565b34801561042257600080fd5b506103ad7f3c11d16cbaffd01df69ce1c404f6340ee057498f5f00246190ea54220576a84881565b34801561045657600080fd5b506102cc610465366004613293565b610d36565b34801561047657600080fd5b506102cc6104853660046132d7565b610f7d565b34801561049657600080fd5b506102976104a5366004613278565b6001600160a01b03166000908152610191602052604090205460ff1690565b3480156104d057600080fd5b506102cc6104df3660046132d7565b610fa2565b3480156104f057600080fd5b506102cc6104ff366004613278565b611020565b34801561051057600080fd5b506102cc611100565b34801561052557600080fd5b506102cc61053436600461323c565b611120565b34801561054557600080fd5b50610594610554366004613278565b6101916020526000908152604090205460ff8116906001600160a01b036101008204169064ffffffffff600160a81b82041690600160d01b900460d01b84565b6040805194151585526001600160a01b03909316602085015264ffffffffff909116918301919091526001600160d01b03191660608201526080016102a3565b6102cc6105e2366004613323565b61113b565b3480156105f357600080fd5b506103ad611208565b34801561060857600080fd5b5060c95460ff16610297565b34801561062057600080fd5b506102e36112bb565b34801561063557600080fd5b506103106106443660046131dd565b61134a565b34801561065557600080fd5b506102cc610664366004613278565b6113aa565b34801561067557600080fd5b506102cc610684366004613278565b61152b565b34801561069557600080fd5b506103ad6106a4366004613278565b61177f565b3480156106b557600080fd5b506102cc611805565b3480156106ca57600080fd5b506102cc611a40565b3480156106df57600080fd5b506102cc6106ee366004613278565b611a60565b3480156106ff57600080fd5b5061029761070e3660046132d7565b611bef565b34801561071f57600080fd5b506102e3611c1a565b34801561073457600080fd5b50610769610743366004613278565b6001600160a01b031660009081526101916020526040902054600160d01b900460d01b90565b6040516001600160d01b031990911681526020016102a3565b34801561078e57600080fd5b506103ad600081565b3480156107a357600080fd5b506102cc6107b2366004613371565b611c29565b3480156107c357600080fd5b506102cc611c34565b3480156107d857600080fd5b506103ad7f8972b9d3322325818f1215107c5cad20b0d1bd8a19dd8c3113a4cda650cdfe6381565b34801561080c57600080fd5b506102cc61081b3660046133a2565b611d74565b34801561082c57600080fd5b506102e361083b3660046131dd565b611dac565b34801561084c57600080fd5b506103ad7f9f2df0fed2c77648de5860a4cc508cd0818c85b8b8a1ab4ceeef8d981c8956a681565b34801561088057600080fd5b506102cc61088f3660046132d7565b611ec0565b3480156108a057600080fd5b506103106108af366004613278565b6001600160a01b039081166000908152610191602052604090205461010090041690565b3480156108df57600080fd5b506103ad6000805160206137d683398151915281565b34801561090157600080fd5b506102cc611ee5565b34801561091657600080fd5b5061029761092536600461340a565b6001600160a01b039182166000908152606a6020908152604080832093909416825291909152205460ff1690565b34801561095f57600080fd5b506103ad7f189ab7a9244df0848122154315af71fe140f3db0fe014031783b0946b8c9d2e381565b600061099282611f19565b92915050565b6109a0611f3e565b7f8972b9d3322325818f1215107c5cad20b0d1bd8a19dd8c3113a4cda650cdfe636109ca81611f84565b81516109de90610192906020850190612f9b565b507feb1360331238b6f21499941a4e580b1210e087f39273f09b641f089bba7b0e7282604051610a0e91906131ca565b60405180910390a15050565b606060658054610a2990613434565b80601f0160208091040260200160405190810160405280929190818152602001828054610a5590613434565b8015610aa25780601f10610a7757610100808354040283529160200191610aa2565b820191906000526020600020905b815481529060010190602001808311610a8557829003601f168201915b5050505050905090565b6000610ab782611f8e565b506000908152606960205260409020546001600160a01b031690565b6000610ade8261134a565b9050806001600160a01b0316836001600160a01b03161415610b515760405162461bcd60e51b815260206004820152602160248201527f4552433732313a20617070726f76616c20746f2063757272656e74206f776e656044820152603960f91b60648201526084015b60405180910390fd5b336001600160a01b0382161480610b6d5750610b6d8133610925565b610bdf5760405162461bcd60e51b815260206004820152603d60248201527f4552433732313a20617070726f76652063616c6c6572206973206e6f7420746f60448201527f6b656e206f776e6572206f7220617070726f76656420666f7220616c6c0000006064820152608401610b48565b610be98383611fed565b505050565b336000908152610191602052604090205460ff161515600114610c535760405162461bcd60e51b815260206004820152601c60248201527f44616f6269566f74653a20416c726561647920696e61637469766521000000006044820152606401610b48565b3360009081526101916020526040808220805460ff19169081905561010090046001600160a01b031682529020805464ffffffffff600160a81b90910416906015610c9d83613485565b825464ffffffffff9182166101009390930a92830291909202199091161790555033600081815261019160205260408082208054610100600160a81b0319169055517fe2795580f31af61313dfda02eec54a3b17d06e395138a74e448cb4cb75d3d8189190a2565b610d0f338261205b565b610d2b5760405162461bcd60e51b8152600401610b48906134a6565b610be98383836120da565b610d3e611f3e565b6000610d493361177f565b11610dac5760405162461bcd60e51b815260206004820152602d60248201527f44616f6269566f74653a20596f75206d75737420686f6c64206120746f6b656e60448201526c20746f2072656769737465722160981b6064820152608401610b48565b336000908152610191602052604090205460ff1615610e1c5760405162461bcd60e51b815260206004820152602660248201527f44616f6269566f74653a20596f752061726520616c726561647920726567697360448201526574657265642160d01b6064820152608401610b48565b6000610e278361177f565b1180610e3a57506001600160a01b038216155b610e865760405162461bcd60e51b815260206004820152601d60248201527f44616f6269566f74653a20496e76616c69642063616e646964617465210000006044820152606401610b48565b336000908152610191602052604080822080546001600160a01b03861661010081026001600160a81b03199092169190911760011790915582529020805464ffffffffff600160a81b90910416906015610edf836134f3565b82546101009290920a64ffffffffff81810219909316919092169190910217905550336000818152610191602090815260409182902080546001600160d01b0316600160d01b60d087901c0217905581516001600160d01b0319851681526001600160a01b038616918101919091527f6dace8372e45246e43414f458253e7ed935e21847e529b375ca8795b95956081910160405180910390a25050565b600082815260fb6020526040902060010154610f9881611f84565b610be98383612133565b6001600160a01b03811633146110125760405162461bcd60e51b815260206004820152602f60248201527f416363657373436f6e74726f6c3a2063616e206f6e6c792072656e6f756e636560448201526e103937b632b9903337b91039b2b63360891b6064820152608401610b48565b61101c82826121b9565b5050565b306001600160a01b037f00000000000000000000000000000000000000000000000000000000000000001614156110695760405162461bcd60e51b8152600401610b4890613518565b7f00000000000000000000000000000000000000000000000000000000000000006001600160a01b03166110b26000805160206137b6833981519152546001600160a01b031690565b6001600160a01b0316146110d85760405162461bcd60e51b8152600401610b4890613564565b6110e181612220565b604080516000808252602082019092526110fd9183919061224a565b50565b6000805160206137d683398151915261111881611f84565b6110fd6123b5565b610be983838360405180602001604052806000815250611d74565b306001600160a01b037f00000000000000000000000000000000000000000000000000000000000000001614156111845760405162461bcd60e51b8152600401610b4890613518565b7f00000000000000000000000000000000000000000000000000000000000000006001600160a01b03166111cd6000805160206137b6833981519152546001600160a01b031690565b6001600160a01b0316146111f35760405162461bcd60e51b8152600401610b4890613564565b6111fc82612220565b61101c8282600161224a565b6000306001600160a01b037f000000000000000000000000000000000000000000000000000000000000000016146112a85760405162461bcd60e51b815260206004820152603860248201527f555550535570677261646561626c653a206d757374206e6f742062652063616c60448201527f6c6564207468726f7567682064656c656761746563616c6c00000000000000006064820152608401610b48565b506000805160206137b683398151915290565b61019280546112c990613434565b80601f01602080910402602001604051908101604052809291908181526020018280546112f590613434565b80156113425780601f1061131757610100808354040283529160200191611342565b820191906000526020600020905b81548152906001019060200180831161132557829003601f168201915b505050505081565b6000818152606760205260408120546001600160a01b0316806109925760405162461bcd60e51b8152602060048201526018602482015277115490cdcc8c4e881a5b9d985b1a59081d1bdad95b88125160421b6044820152606401610b48565b6113b2611f3e565b7f9f2df0fed2c77648de5860a4cc508cd0818c85b8b8a1ab4ceeef8d981c8956a66113dc81611f84565b6113e58261177f565b156114425760405162461bcd60e51b815260206004820152602760248201527f44616f6269566f74653a204163636f756e7420616c726561647920686173206160448201526620746f6b656e2160c81b6064820152608401610b48565b61145582836001600160a01b0316612407565b6114f3826001600160a01b0316610192805461147090613434565b80601f016020809104026020016040519081016040528092919081815260200182805461149c90613434565b80156114e95780601f106114be576101008083540402835291602001916114e9565b820191906000526020600020905b8154815290600101906020018083116114cc57829003601f168201915b5050505050612421565b6040516001600160a01b038316907f0f53e2a811b6fd2d6cd965fd6c27b44fb924ca39f7a7f321115705c22366d62390600090a25050565b611533611f3e565b600061153e3361177f565b116115965760405162461bcd60e51b815260206004820152602260248201527f44616f6269566f74653a20596f7520646f6e27742068617665206120746f6b656044820152616e2160f01b6064820152608401610b48565b336000908152610191602052604090205460ff1615156001146116055760405162461bcd60e51b815260206004820152602160248201527f44616f6269566f74653a20596f75277265206e6f7420726567697374657265646044820152602160f81b6064820152608401610b48565b6001600160a01b0381161580611623575060006116218261177f565b115b61166f5760405162461bcd60e51b815260206004820152601d60248201527f44616f6269566f74653a20496e76616c69642063616e646964617465210000006044820152606401610b48565b33600090815261019160205260408082205461010090046001600160a01b031682529020805464ffffffffff600160a81b909104169060156116b083613485565b825461010092830a64ffffffffff81810219909216928216029190911790925533600090815261019160205260408082208054610100600160a81b0319166001600160a01b038816948502179055918152208054600160a81b90049091169150601561171b836134f3565b91906101000a81548164ffffffffff021916908364ffffffffff16021790555050806001600160a01b0316336001600160a01b03167fce0c7a2a940807f7dc2ce7a615c2532e915e6c0ac9a08bc4ed9d515a710a53e260405160405180910390a350565b60006001600160a01b0382166117e95760405162461bcd60e51b815260206004820152602960248201527f4552433732313a2061646472657373207a65726f206973206e6f7420612076616044820152683634b21037bbb732b960b91b6064820152608401610b48565b506001600160a01b031660009081526068602052604090205490565b600054610100900460ff16158080156118255750600054600160ff909116105b8061183f5750303b15801561183f575060005460ff166001145b6118a25760405162461bcd60e51b815260206004820152602e60248201527f496e697469616c697a61626c653a20636f6e747261637420697320616c72656160448201526d191e481a5b9a5d1a585b1a5e995960921b6064820152608401610b48565b6000805460ff1916600117905580156118c5576000805461ff0019166101001790555b611915604051806040016040528060128152602001712220a7b134902b37ba34b733902a37b5b2b760711b8152506040518060400160405280600481526020016311109d9d60e21b8152506124bb565b61191d6124ec565b61192561251b565b61192d61251b565b611938600033612133565b6119506000805160206137d683398151915233612133565b61197a7f9f2df0fed2c77648de5860a4cc508cd0818c85b8b8a1ab4ceeef8d981c8956a633612133565b6119a47f189ab7a9244df0848122154315af71fe140f3db0fe014031783b0946b8c9d2e333612133565b6119ce7f3c11d16cbaffd01df69ce1c404f6340ee057498f5f00246190ea54220576a84833612133565b6119f87f8972b9d3322325818f1215107c5cad20b0d1bd8a19dd8c3113a4cda650cdfe6333612133565b80156110fd576000805461ff0019169055604051600181527f7f26b83ff96e1f2b6a682f133852f6798a09c465da95921460cefb38474024989060200160405180910390a150565b6000805160206137d6833981519152611a5881611f84565b6110fd612542565b7f3c11d16cbaffd01df69ce1c404f6340ee057498f5f00246190ea54220576a848611a8a81611f84565b6000611a958361177f565b11611af25760405162461bcd60e51b815260206004820152602760248201527f44616f6269566f74653a2054686572652069736e2774206120746f6b656e20746044820152666f206275726e2160c81b6064820152608401610b48565b6001600160a01b0382166000908152610191602052604090205460ff16151560011415611ba5576001600160a01b03828116600090815261019160205260408082205461010090049092168152208054600160a81b900464ffffffffff16906015611b5c83613485565b825464ffffffffff9182166101009390930a9283029190920219909116179055506001600160a01b03821660009081526101916020526040902080546001600160a81b03191690555b611bb7826001600160a01b031661257f565b6040516001600160a01b038316907f0ce6b15623afb84538dc319bdb30ea0a2cd87994e4969451d2402323afc5b03e90600090a25050565b600091825260fb602090815260408084206001600160a01b0393909316845291905290205460ff1690565b606060668054610a2990613434565b61101c338383612588565b6000611c3f3361177f565b11611c9f5760405162461bcd60e51b815260206004820152602a60248201527f44616f6269566f74653a20596f7520646f6e27742068617665206120746f6b656044820152696e20746f206275726e2160b01b6064820152608401610b48565b336000908152610191602052604090205460ff16151560011415611d3e5733600090815261019160205260408082205461010090046001600160a01b031682529020805464ffffffffff600160a81b90910416906015611cfe83613485565b825464ffffffffff9182166101009390930a9283029190920219909116179055503360009081526101916020526040902080546001600160a81b03191690555b611d473361257f565b60405133907fe2dcdac28d5b769b8221ddcb0de5841cb43bc22ac5d77d03bdd6a347eb6c5e0490600090a2565b611d7e338361205b565b611d9a5760405162461bcd60e51b8152600401610b48906134a6565b611da684848484612657565b50505050565b6000818152606760205260409020546060906001600160a01b0316611e2d5760405162461bcd60e51b815260206004820152603160248201527f45524337323155524953746f726167653a2055524920717565727920666f72206044820152703737b732bc34b9ba32b73a103a37b5b2b760791b6064820152608401610b48565b6101928054611e3b90613434565b80601f0160208091040260200160405190810160405280929190818152602001828054611e6790613434565b8015611eb45780601f10611e8957610100808354040283529160200191611eb4565b820191906000526020600020905b815481529060010190602001808311611e9757829003601f168201915b50505050509050919050565b600082815260fb6020526040902060010154611edb81611f84565b610be983836121b9565b611eed611f3e565b611f08336001600160a01b0316610192805461147090613434565b565b6001600160a01b03163b151590565b60006001600160e01b03198216637965db0b60e01b148061099257506109928261268a565b60c95460ff1615611f085760405162461bcd60e51b815260206004820152601060248201526f14185d5cd8589b194e881c185d5cd95960821b6044820152606401610b48565b6110fd81336126da565b6000818152606760205260409020546001600160a01b03166110fd5760405162461bcd60e51b8152602060048201526018602482015277115490cdcc8c4e881a5b9d985b1a59081d1bdad95b88125160421b6044820152606401610b48565b600081815260696020526040902080546001600160a01b0319166001600160a01b03841690811790915581906120228261134a565b6001600160a01b03167f8c5be1e5ebec7d5bd14f71427d1e84f3dd0314c0f7b2291e5b200ac8c7c3b92560405160405180910390a45050565b6000806120678361134a565b9050806001600160a01b0316846001600160a01b031614806120ae57506001600160a01b038082166000908152606a602090815260408083209388168352929052205460ff165b806120d25750836001600160a01b03166120c784610aac565b6001600160a01b0316145b949350505050565b60405162461bcd60e51b815260206004820152602860248201527f44616f6269566f74653a20546f6b656e7320417265204e6f74205472616e736660448201526765727261626c652160c01b6064820152608401610b48565b61213d8282611bef565b61101c57600082815260fb602090815260408083206001600160a01b03851684529091529020805460ff191660011790556121753390565b6001600160a01b0316816001600160a01b0316837f2f8788117e7eff1d82e926ec794901d17c78024a50270940304540a733656f0d60405160405180910390a45050565b6121c38282611bef565b1561101c57600082815260fb602090815260408083206001600160a01b0385168085529252808320805460ff1916905551339285917ff6391f5c32d9c69d2a47ea670b442974b53935d1edc7fd64eb21e047a839171b9190a45050565b7f189ab7a9244df0848122154315af71fe140f3db0fe014031783b0946b8c9d2e361101c81611f84565b7f4910fdfa16fed3260ed0e7147f7cc6da11a60208b5b9406d12a635614ffd91435460ff161561227d57610be983612733565b826001600160a01b03166352d1902d6040518163ffffffff1660e01b8152600401602060405180830381865afa9250505080156122d7575060408051601f3d908101601f191682019092526122d4918101906135b0565b60015b61233a5760405162461bcd60e51b815260206004820152602e60248201527f45524331393637557067726164653a206e657720696d706c656d656e7461746960448201526d6f6e206973206e6f74205555505360901b6064820152608401610b48565b6000805160206137b683398151915281146123a95760405162461bcd60e51b815260206004820152602960248201527f45524331393637557067726164653a20756e737570706f727465642070726f786044820152681a58589b195555525160ba1b6064820152608401610b48565b50610be98383836127cf565b6123bd6127f4565b60c9805460ff191690557f5db9ee0a495bf2e6ff9c91a7834c1ba4fdd244a5e8aa4e537bd38aeae4b073aa335b6040516001600160a01b03909116815260200160405180910390a1565b61101c82826040518060200160405280600081525061283d565b6000828152606760205260409020546001600160a01b031661249c5760405162461bcd60e51b815260206004820152602e60248201527f45524337323155524953746f726167653a2055524920736574206f66206e6f6e60448201526d32bc34b9ba32b73a103a37b5b2b760911b6064820152608401610b48565b60008281526097602090815260409091208251610be992840190612f9b565b600054610100900460ff166124e25760405162461bcd60e51b8152600401610b48906135c9565b61101c8282612870565b600054610100900460ff166125135760405162461bcd60e51b8152600401610b48906135c9565b611f086128be565b600054610100900460ff16611f085760405162461bcd60e51b8152600401610b48906135c9565b61254a611f3e565b60c9805460ff191660011790557f62e78cea01bee320cd4e420270b5ea74000d11b0c9f74754ebdbfc544b05a2586123ea3390565b6110fd816128f1565b816001600160a01b0316836001600160a01b031614156125ea5760405162461bcd60e51b815260206004820152601960248201527f4552433732313a20617070726f766520746f2063616c6c6572000000000000006044820152606401610b48565b6001600160a01b038381166000818152606a6020908152604080832094871680845294825291829020805460ff191686151590811790915591519182527f17307eab39ab6107e8899845ad3d59bd9653f200f220920489ca2b5937696c31910160405180910390a3505050565b6126628484846120da565b61266e84848484612931565b611da65760405162461bcd60e51b8152600401610b4890613614565b60006001600160e01b031982166380ac58cd60e01b14806126bb57506001600160e01b03198216635b5e139f60e01b145b8061099257506301ffc9a760e01b6001600160e01b0319831614610992565b6126e48282611bef565b61101c576126f181612a2f565b6126fc836020612a41565b60405160200161270d929190613666565b60408051601f198184030181529082905262461bcd60e51b8252610b48916004016131ca565b6001600160a01b0381163b6127a05760405162461bcd60e51b815260206004820152602d60248201527f455243313936373a206e657720696d706c656d656e746174696f6e206973206e60448201526c1bdd08184818dbdb9d1c9858dd609a1b6064820152608401610b48565b6000805160206137b683398151915280546001600160a01b0319166001600160a01b0392909216919091179055565b6127d883612be4565b6000825111806127e55750805b15610be957611da68383612c24565b60c95460ff16611f085760405162461bcd60e51b815260206004820152601460248201527314185d5cd8589b194e881b9bdd081c185d5cd95960621b6044820152606401610b48565b6128478383612d18565b6128546000848484612931565b610be95760405162461bcd60e51b8152600401610b4890613614565b600054610100900460ff166128975760405162461bcd60e51b8152600401610b48906135c9565b81516128aa906065906020850190612f9b565b508051610be9906066906020840190612f9b565b600054610100900460ff166128e55760405162461bcd60e51b8152600401610b48906135c9565b60c9805460ff19169055565b6128fa81612eaf565b6000818152609760205260409020805461291390613434565b1590506110fd5760008181526097602052604081206110fd9161301f565b60006001600160a01b0384163b15612a2457604051630a85bd0160e11b81526001600160a01b0385169063150b7a02906129759033908990889088906004016136db565b6020604051808303816000875af19250505080156129b0575060408051601f3d908101601f191682019092526129ad91810190613718565b60015b612a0a573d8080156129de576040519150601f19603f3d011682016040523d82523d6000602084013e6129e3565b606091505b508051612a025760405162461bcd60e51b8152600401610b4890613614565b805181602001fd5b6001600160e01b031916630a85bd0160e11b1490506120d2565b506001949350505050565b60606109926001600160a01b03831660145b60606000612a50836002613735565b612a5b906002613754565b67ffffffffffffffff811115612a7357612a7361309d565b6040519080825280601f01601f191660200182016040528015612a9d576020820181803683370190505b509050600360fc1b81600081518110612ab857612ab861376c565b60200101906001600160f81b031916908160001a905350600f60fb1b81600181518110612ae757612ae761376c565b60200101906001600160f81b031916908160001a9053506000612b0b846002613735565b612b16906001613754565b90505b6001811115612b8e576f181899199a1a9b1b9c1cb0b131b232b360811b85600f1660108110612b4a57612b4a61376c565b1a60f81b828281518110612b6057612b6061376c565b60200101906001600160f81b031916908160001a90535060049490941c93612b8781613782565b9050612b19565b508315612bdd5760405162461bcd60e51b815260206004820181905260248201527f537472696e67733a20686578206c656e67746820696e73756666696369656e746044820152606401610b48565b9392505050565b612bed81612733565b6040516001600160a01b038216907fbc7cd75a20ee27fd9adebab32041f755214dbc6bffa90cc0225b39da2e5c2d3b90600090a250565b60606001600160a01b0383163b612c8c5760405162461bcd60e51b815260206004820152602660248201527f416464726573733a2064656c65676174652063616c6c20746f206e6f6e2d636f6044820152651b9d1c9858dd60d21b6064820152608401610b48565b600080846001600160a01b031684604051612ca79190613799565b600060405180830381855af49150503d8060008114612ce2576040519150601f19603f3d011682016040523d82523d6000602084013e612ce7565b606091505b5091509150612d0f82826040518060600160405280602781526020016137f660279139612f50565b95945050505050565b6001600160a01b038216612d6e5760405162461bcd60e51b815260206004820181905260248201527f4552433732313a206d696e7420746f20746865207a65726f20616464726573736044820152606401610b48565b6000818152606760205260409020546001600160a01b031615612dd35760405162461bcd60e51b815260206004820152601c60248201527f4552433732313a20746f6b656e20616c7265616479206d696e746564000000006044820152606401610b48565b612ddf60008383612f69565b6000818152606760205260409020546001600160a01b031615612e445760405162461bcd60e51b815260206004820152601c60248201527f4552433732313a20746f6b656e20616c7265616479206d696e746564000000006044820152606401610b48565b6001600160a01b038216600081815260686020908152604080832080546001019055848352606790915280822080546001600160a01b0319168417905551839291907fddf252ad1be2c89b69c2b068fc378daa952ba7f163c4a11628f55a4df523b3ef908290a45050565b6000612eba8261134a565b9050612ec881600084612f69565b612ed18261134a565b600083815260696020908152604080832080546001600160a01b03199081169091556001600160a01b0385168085526068845282852080546000190190558785526067909352818420805490911690555192935084927fddf252ad1be2c89b69c2b068fc378daa952ba7f163c4a11628f55a4df523b3ef908390a45050565b60608315612f5f575081612bdd565b612bdd8383612f71565b610be9611f3e565b815115612f815781518083602001fd5b8060405162461bcd60e51b8152600401610b4891906131ca565b828054612fa790613434565b90600052602060002090601f016020900481019282612fc9576000855561300f565b82601f10612fe257805160ff191683800117855561300f565b8280016001018555821561300f579182015b8281111561300f578251825591602001919060010190612ff4565b5061301b929150613055565b5090565b50805461302b90613434565b6000825580601f1061303b575050565b601f0160209004906000526020600020908101906110fd91905b5b8082111561301b5760008155600101613056565b6001600160e01b0319811681146110fd57600080fd5b60006020828403121561309257600080fd5b8135612bdd8161306a565b634e487b7160e01b600052604160045260246000fd5b600067ffffffffffffffff808411156130ce576130ce61309d565b604051601f8501601f19908116603f011681019082821181831017156130f6576130f661309d565b8160405280935085815286868601111561310f57600080fd5b858560208301376000602087830101525050509392505050565b60006020828403121561313b57600080fd5b813567ffffffffffffffff81111561315257600080fd5b8201601f8101841361316357600080fd5b6120d2848235602084016130b3565b60005b8381101561318d578181015183820152602001613175565b83811115611da65750506000910152565b600081518084526131b6816020860160208601613172565b601f01601f19169290920160200192915050565b602081526000612bdd602083018461319e565b6000602082840312156131ef57600080fd5b5035919050565b80356001600160a01b038116811461320d57600080fd5b919050565b6000806040838503121561322557600080fd5b61322e836131f6565b946020939093013593505050565b60008060006060848603121561325157600080fd5b61325a846131f6565b9250613268602085016131f6565b9150604084013590509250925092565b60006020828403121561328a57600080fd5b612bdd826131f6565b600080604083850312156132a657600080fd5b6132af836131f6565b915060208301356001600160d01b0319811681146132cc57600080fd5b809150509250929050565b600080604083850312156132ea57600080fd5b823591506132fa602084016131f6565b90509250929050565b600082601f83011261331457600080fd5b612bdd838335602085016130b3565b6000806040838503121561333657600080fd5b61333f836131f6565b9150602083013567ffffffffffffffff81111561335b57600080fd5b61336785828601613303565b9150509250929050565b6000806040838503121561338457600080fd5b61338d836131f6565b9150602083013580151581146132cc57600080fd5b600080600080608085870312156133b857600080fd5b6133c1856131f6565b93506133cf602086016131f6565b925060408501359150606085013567ffffffffffffffff8111156133f257600080fd5b6133fe87828801613303565b91505092959194509250565b6000806040838503121561341d57600080fd5b613426836131f6565b91506132fa602084016131f6565b600181811c9082168061344857607f821691505b6020821081141561346957634e487b7160e01b600052602260045260246000fd5b50919050565b634e487b7160e01b600052601160045260246000fd5b600064ffffffffff82168061349c5761349c61346f565b6000190192915050565b6020808252602d908201527f4552433732313a2063616c6c6572206973206e6f7420746f6b656e206f776e6560408201526c1c881bdc88185c1c1c9bdd9959609a1b606082015260800190565b600064ffffffffff8083168181141561350e5761350e61346f565b6001019392505050565b6020808252602c908201527f46756e6374696f6e206d7573742062652063616c6c6564207468726f7567682060408201526b19195b1959d85d1958d85b1b60a21b606082015260800190565b6020808252602c908201527f46756e6374696f6e206d7573742062652063616c6c6564207468726f7567682060408201526b6163746976652070726f787960a01b606082015260800190565b6000602082840312156135c257600080fd5b5051919050565b6020808252602b908201527f496e697469616c697a61626c653a20636f6e7472616374206973206e6f74206960408201526a6e697469616c697a696e6760a81b606082015260800190565b60208082526032908201527f4552433732313a207472616e7366657220746f206e6f6e20455243373231526560408201527131b2b4bb32b91034b6b83632b6b2b73a32b960711b606082015260800190565b7f416363657373436f6e74726f6c3a206163636f756e742000000000000000000081526000835161369e816017850160208801613172565b7001034b99036b4b9b9b4b733903937b6329607d1b60179184019182015283516136cf816028840160208801613172565b01602801949350505050565b6001600160a01b038581168252841660208201526040810183905260806060820181905260009061370e9083018461319e565b9695505050505050565b60006020828403121561372a57600080fd5b8151612bdd8161306a565b600081600019048311821515161561374f5761374f61346f565b500290565b600082198211156137675761376761346f565b500190565b634e487b7160e01b600052603260045260246000fd5b6000816137915761379161346f565b506000190190565b600082516137ab818460208701613172565b919091019291505056fe360894a13ba1a3210667c828492db98dca3e2076cc3735a920a3ca505d382bbc65d7a28e3265b37a6474929f336521b332c1681b933f6cb9f3376673440d862a416464726573733a206c6f772d6c6576656c2064656c65676174652063616c6c206661696c6564a2646970667358221220ac2f82b3301efc721654c2aa0c2f231b9d3673882d36045e7983479fd4b07de664736f6c634300080a0033",
  "linkReferences": {},
  "deployedLinkReferences": {}
}