{
  "_format": "hh-sol-artifact-1",
  "contractName": "DAObiContract3",
  "sourceName": "contracts/DAObiContract3.sol",
  "abi": [
    {
      "inputs": [],
      "stateMutability": "nonpayable",
      "type": "constructor"
    },
    {
      "anonymous": false,
      "inputs": [
        {
          "indexed": false,
          "internalType": "address",
          "name": "previousAdmin",
          "type": "address"
        },
        {
          "indexed": false,
          "internalType": "address",
          "name": "newAdmin",
          "type": "address"
        }
      ],
      "name": "AdminChanged",
      "type": "event"
    },
    {
      "anonymous": false,
      "inputs": [
        {
          "indexed": true,
          "internalType": "address",
          "name": "owner",
          "type": "address"
        },
        {
          "indexed": true,
          "internalType": "address",
          "name": "spender",
          "type": "address"
        },
        {
          "indexed": false,
          "internalType": "uint256",
          "name": "value",
          "type": "uint256"
        }
      ],
      "name": "Approval",
      "type": "event"
    },
    {
      "anonymous": false,
      "inputs": [
        {
          "indexed": true,
          "internalType": "address",
          "name": "beacon",
          "type": "address"
        }
      ],
      "name": "BeaconUpgraded",
      "type": "event"
    },
    {
      "anonymous": false,
      "inputs": [
        {
          "indexed": true,
          "internalType": "address",
          "name": "_claimant",
          "type": "address"
        },
        {
          "indexed": false,
          "internalType": "uint40",
          "name": "_votes",
          "type": "uint40"
        }
      ],
      "name": "ClaimAttempted",
      "type": "event"
    },
    {
      "anonymous": false,
      "inputs": [
        {
          "indexed": true,
          "internalType": "address",
          "name": "_claimant",
          "type": "address"
        },
        {
          "indexed": false,
          "internalType": "uint40",
          "name": "_votes",
          "type": "uint40"
        }
      ],
      "name": "ClaimSucceeded",
      "type": "event"
    },
    {
      "anonymous": false,
      "inputs": [
        {
          "indexed": false,
          "internalType": "address",
          "name": "_newDAO",
          "type": "address"
        }
      ],
      "name": "DAORetargeted",
      "type": "event"
    },
    {
      "anonymous": false,
      "inputs": [
        {
          "indexed": true,
          "internalType": "uint256",
          "name": "amount",
          "type": "uint256"
        }
      ],
      "name": "DaobiMinted",
      "type": "event"
    },
    {
      "anonymous": false,
      "inputs": [
        {
          "indexed": false,
          "internalType": "uint8",
          "name": "version",
          "type": "uint8"
        }
      ],
      "name": "Initialized",
      "type": "event"
    },
    {
      "anonymous": false,
      "inputs": [
        {
          "indexed": true,
          "internalType": "address",
          "name": "_newChanc",
          "type": "address"
        }
      ],
      "name": "NewChancellor",
      "type": "event"
    },
    {
      "anonymous": false,
      "inputs": [
        {
          "indexed": false,
          "internalType": "address",
          "name": "account",
          "type": "address"
        }
      ],
      "name": "Paused",
      "type": "event"
    },
    {
      "anonymous": false,
      "inputs": [
        {
          "indexed": true,
          "internalType": "bytes32",
          "name": "role",
          "type": "bytes32"
        },
        {
          "indexed": true,
          "internalType": "bytes32",
          "name": "previousAdminRole",
          "type": "bytes32"
        },
        {
          "indexed": true,
          "internalType": "bytes32",
          "name": "newAdminRole",
          "type": "bytes32"
        }
      ],
      "name": "RoleAdminChanged",
      "type": "event"
    },
    {
      "anonymous": false,
      "inputs": [
        {
          "indexed": true,
          "internalType": "bytes32",
          "name": "role",
          "type": "bytes32"
        },
        {
          "indexed": true,
          "internalType": "address",
          "name": "account",
          "type": "address"
        },
        {
          "indexed": true,
          "internalType": "address",
          "name": "sender",
          "type": "address"
        }
      ],
      "name": "RoleGranted",
      "type": "event"
    },
    {
      "anonymous": false,
      "inputs": [
        {
          "indexed": true,
          "internalType": "bytes32",
          "name": "role",
          "type": "bytes32"
        },
        {
          "indexed": true,
          "internalType": "address",
          "name": "account",
          "type": "address"
        },
        {
          "indexed": true,
          "internalType": "address",
          "name": "sender",
          "type": "address"
        }
      ],
      "name": "RoleRevoked",
      "type": "event"
    },
    {
      "anonymous": false,
      "inputs": [
        {
          "indexed": false,
          "internalType": "address",
          "name": "_newSealAddr",
          "type": "address"
        }
      ],
      "name": "SealContractChange",
      "type": "event"
    },
    {
      "anonymous": false,
      "inputs": [
        {
          "indexed": true,
          "internalType": "address",
          "name": "from",
          "type": "address"
        },
        {
          "indexed": true,
          "internalType": "address",
          "name": "to",
          "type": "address"
        },
        {
          "indexed": false,
          "internalType": "uint256",
          "name": "value",
          "type": "uint256"
        }
      ],
      "name": "Transfer",
      "type": "event"
    },
    {
      "anonymous": false,
      "inputs": [
        {
          "indexed": false,
          "internalType": "address",
          "name": "account",
          "type": "address"
        }
      ],
      "name": "Unpaused",
      "type": "event"
    },
    {
      "anonymous": false,
      "inputs": [
        {
          "indexed": true,
          "internalType": "address",
          "name": "implementation",
          "type": "address"
        }
      ],
      "name": "Upgraded",
      "type": "event"
    },
    {
      "anonymous": false,
      "inputs": [
        {
          "indexed": false,
          "internalType": "address",
          "name": "_newVoteScheme",
          "type": "address"
        }
      ],
      "name": "VoteContractChange",
      "type": "event"
    },
    {
      "anonymous": false,
      "inputs": [
        {
          "indexed": false,
          "internalType": "address",
          "name": "_chancellor",
          "type": "address"
        }
      ],
      "name": "chancellorPaid",
      "type": "event"
    },
    {
      "inputs": [],
      "name": "CHANCELLOR_ROLE",
      "outputs": [
        {
          "internalType": "bytes32",
          "name": "",
          "type": "bytes32"
        }
      ],
      "stateMutability": "view",
      "type": "function"
    },
    {
      "inputs": [],
      "name": "DAOvault",
      "outputs": [
        {
          "internalType": "address",
          "name": "",
          "type": "address"
        }
      ],
      "stateMutability": "view",
      "type": "function"
    },
    {
      "inputs": [],
      "name": "DEFAULT_ADMIN_ROLE",
      "outputs": [
        {
          "internalType": "bytes32",
          "name": "",
          "type": "bytes32"
        }
      ],
      "stateMutability": "view",
      "type": "function"
    },
    {
      "inputs": [],
      "name": "TREASURER_ROLE",
      "outputs": [
        {
          "internalType": "bytes32",
          "name": "",
          "type": "bytes32"
        }
      ],
      "stateMutability": "view",
      "type": "function"
    },
    {
      "inputs": [],
      "name": "UPGRADER_ROLE",
      "outputs": [
        {
          "internalType": "bytes32",
          "name": "",
          "type": "bytes32"
        }
      ],
      "stateMutability": "view",
      "type": "function"
    },
    {
      "inputs": [
        {
          "internalType": "uint256",
          "name": "_newSalary",
          "type": "uint256"
        }
      ],
      "name": "adjustSalaryAmount",
      "outputs": [],
      "stateMutability": "nonpayable",
      "type": "function"
    },
    {
      "inputs": [
        {
          "internalType": "uint256",
          "name": "_newInterval",
          "type": "uint256"
        }
      ],
      "name": "adjustSalaryInterval",
      "outputs": [],
      "stateMutability": "nonpayable",
      "type": "function"
    },
    {
      "inputs": [
        {
          "internalType": "address",
          "name": "owner",
          "type": "address"
        },
        {
          "internalType": "address",
          "name": "spender",
          "type": "address"
        }
      ],
      "name": "allowance",
      "outputs": [
        {
          "internalType": "uint256",
          "name": "",
          "type": "uint256"
        }
      ],
      "stateMutability": "view",
      "type": "function"
    },
    {
      "inputs": [
        {
          "internalType": "address",
          "name": "spender",
          "type": "address"
        },
        {
          "internalType": "uint256",
          "name": "amount",
          "type": "uint256"
        }
      ],
      "name": "approve",
      "outputs": [
        {
          "internalType": "bool",
          "name": "",
          "type": "bool"
        }
      ],
      "stateMutability": "nonpayable",
      "type": "function"
    },
    {
      "inputs": [
        {
          "internalType": "address",
          "name": "account",
          "type": "address"
        }
      ],
      "name": "balanceOf",
      "outputs": [
        {
          "internalType": "uint256",
          "name": "",
          "type": "uint256"
        }
      ],
      "stateMutability": "view",
      "type": "function"
    },
    {
      "inputs": [
        {
          "internalType": "uint256",
          "name": "amount",
          "type": "uint256"
        }
      ],
      "name": "burn",
      "outputs": [],
      "stateMutability": "nonpayable",
      "type": "function"
    },
    {
      "inputs": [
        {
          "internalType": "address",
          "name": "account",
          "type": "address"
        },
        {
          "internalType": "uint256",
          "name": "amount",
          "type": "uint256"
        }
      ],
      "name": "burnFrom",
      "outputs": [],
      "stateMutability": "nonpayable",
      "type": "function"
    },
    {
      "inputs": [],
      "name": "chancellor",
      "outputs": [
        {
          "internalType": "address",
          "name": "",
          "type": "address"
        }
      ],
      "stateMutability": "view",
      "type": "function"
    },
    {
      "inputs": [],
      "name": "chancellorSalary",
      "outputs": [
        {
          "internalType": "uint256",
          "name": "",
          "type": "uint256"
        }
      ],
      "stateMutability": "view",
      "type": "function"
    },
    {
      "inputs": [],
      "name": "claimChancellorSalary",
      "outputs": [],
      "stateMutability": "nonpayable",
      "type": "function"
    },
    {
      "inputs": [],
      "name": "decimals",
      "outputs": [
        {
          "internalType": "uint8",
          "name": "",
          "type": "uint8"
        }
      ],
      "stateMutability": "view",
      "type": "function"
    },
    {
      "inputs": [
        {
          "internalType": "address",
          "name": "spender",
          "type": "address"
        },
        {
          "internalType": "uint256",
          "name": "subtractedValue",
          "type": "uint256"
        }
      ],
      "name": "decreaseAllowance",
      "outputs": [
        {
          "internalType": "bool",
          "name": "",
          "type": "bool"
        }
      ],
      "stateMutability": "nonpayable",
      "type": "function"
    },
    {
      "inputs": [
        {
          "internalType": "bytes32",
          "name": "role",
          "type": "bytes32"
        }
      ],
      "name": "getRoleAdmin",
      "outputs": [
        {
          "internalType": "bytes32",
          "name": "",
          "type": "bytes32"
        }
      ],
      "stateMutability": "view",
      "type": "function"
    },
    {
      "inputs": [
        {
          "internalType": "bytes32",
          "name": "role",
          "type": "bytes32"
        },
        {
          "internalType": "address",
          "name": "account",
          "type": "address"
        }
      ],
      "name": "grantRole",
      "outputs": [],
      "stateMutability": "nonpayable",
      "type": "function"
    },
    {
      "inputs": [
        {
          "internalType": "bytes32",
          "name": "role",
          "type": "bytes32"
        },
        {
          "internalType": "address",
          "name": "account",
          "type": "address"
        }
      ],
      "name": "hasRole",
      "outputs": [
        {
          "internalType": "bool",
          "name": "",
          "type": "bool"
        }
      ],
      "stateMutability": "view",
      "type": "function"
    },
    {
      "inputs": [
        {
          "internalType": "address",
          "name": "spender",
          "type": "address"
        },
        {
          "internalType": "uint256",
          "name": "addedValue",
          "type": "uint256"
        }
      ],
      "name": "increaseAllowance",
      "outputs": [
        {
          "internalType": "bool",
          "name": "",
          "type": "bool"
        }
      ],
      "stateMutability": "nonpayable",
      "type": "function"
    },
    {
      "inputs": [],
      "name": "initialize",
      "outputs": [],
      "stateMutability": "nonpayable",
      "type": "function"
    },
    {
      "inputs": [],
      "name": "lastSalaryClaim",
      "outputs": [
        {
          "internalType": "uint256",
          "name": "",
          "type": "uint256"
        }
      ],
      "stateMutability": "view",
      "type": "function"
    },
    {
      "inputs": [],
      "name": "makeClaim",
      "outputs": [],
      "stateMutability": "nonpayable",
      "type": "function"
    },
    {
      "inputs": [
        {
          "internalType": "uint256",
          "name": "amount",
          "type": "uint256"
        }
      ],
      "name": "mint",
      "outputs": [],
      "stateMutability": "payable",
      "type": "function"
    },
    {
      "inputs": [],
      "name": "name",
      "outputs": [
        {
          "internalType": "string",
          "name": "",
          "type": "string"
        }
      ],
      "stateMutability": "view",
      "type": "function"
    },
    {
      "inputs": [],
      "name": "pause",
      "outputs": [],
      "stateMutability": "nonpayable",
      "type": "function"
    },
    {
      "inputs": [],
      "name": "paused",
      "outputs": [
        {
          "internalType": "bool",
          "name": "",
          "type": "bool"
        }
      ],
      "stateMutability": "view",
      "type": "function"
    },
    {
      "inputs": [],
      "name": "proxiableUUID",
      "outputs": [
        {
          "internalType": "bytes32",
          "name": "",
          "type": "bytes32"
        }
      ],
      "stateMutability": "view",
      "type": "function"
    },
    {
      "inputs": [],
      "name": "recoverSeal",
      "outputs": [],
      "stateMutability": "nonpayable",
      "type": "function"
    },
    {
      "inputs": [
        {
          "internalType": "bytes32",
          "name": "role",
          "type": "bytes32"
        },
        {
          "internalType": "address",
          "name": "account",
          "type": "address"
        }
      ],
      "name": "renounceRole",
      "outputs": [],
      "stateMutability": "nonpayable",
      "type": "function"
    },
    {
      "inputs": [
        {
          "internalType": "address",
          "name": "_newVault",
          "type": "address"
        }
      ],
      "name": "retargetDAO",
      "outputs": [],
      "stateMutability": "nonpayable",
      "type": "function"
    },
    {
      "inputs": [
        {
          "internalType": "address",
          "name": "_sealContract",
          "type": "address"
        }
      ],
      "name": "retargetSeal",
      "outputs": [],
      "stateMutability": "nonpayable",
      "type": "function"
    },
    {
      "inputs": [
        {
          "internalType": "address",
          "name": "_voteContract",
          "type": "address"
        }
      ],
      "name": "retargetVoting",
      "outputs": [],
      "stateMutability": "nonpayable",
      "type": "function"
    },
    {
      "inputs": [
        {
          "internalType": "bytes32",
          "name": "role",
          "type": "bytes32"
        },
        {
          "internalType": "address",
          "name": "account",
          "type": "address"
        }
      ],
      "name": "revokeRole",
      "outputs": [],
      "stateMutability": "nonpayable",
      "type": "function"
    },
    {
      "inputs": [],
      "name": "salaryInterval",
      "outputs": [
        {
          "internalType": "uint256",
          "name": "",
          "type": "uint256"
        }
      ],
      "stateMutability": "view",
      "type": "function"
    },
    {
      "inputs": [],
      "name": "sealContract",
      "outputs": [
        {
          "internalType": "address",
          "name": "",
          "type": "address"
        }
      ],
      "stateMutability": "view",
      "type": "function"
    },
    {
      "inputs": [
        {
          "internalType": "uint24",
          "name": "_swapFee",
          "type": "uint24"
        }
      ],
      "name": "setSwapFee",
      "outputs": [],
      "stateMutability": "nonpayable",
      "type": "function"
    },
    {
      "inputs": [
        {
          "internalType": "bytes4",
          "name": "interfaceId",
          "type": "bytes4"
        }
      ],
      "name": "supportsInterface",
      "outputs": [
        {
          "internalType": "bool",
          "name": "",
          "type": "bool"
        }
      ],
      "stateMutability": "view",
      "type": "function"
    },
    {
      "inputs": [],
      "name": "swapFee",
      "outputs": [
        {
          "internalType": "uint24",
          "name": "",
          "type": "uint24"
        }
      ],
      "stateMutability": "view",
      "type": "function"
    },
    {
      "inputs": [],
      "name": "symbol",
      "outputs": [
        {
          "internalType": "string",
          "name": "",
          "type": "string"
        }
      ],
      "stateMutability": "view",
      "type": "function"
    },
    {
      "inputs": [],
      "name": "totalSupply",
      "outputs": [
        {
          "internalType": "uint256",
          "name": "",
          "type": "uint256"
        }
      ],
      "stateMutability": "view",
      "type": "function"
    },
    {
      "inputs": [
        {
          "internalType": "address",
          "name": "to",
          "type": "address"
        },
        {
          "internalType": "uint256",
          "name": "amount",
          "type": "uint256"
        }
      ],
      "name": "transfer",
      "outputs": [
        {
          "internalType": "bool",
          "name": "",
          "type": "bool"
        }
      ],
      "stateMutability": "nonpayable",
      "type": "function"
    },
    {
      "inputs": [
        {
          "internalType": "address",
          "name": "from",
          "type": "address"
        },
        {
          "internalType": "address",
          "name": "to",
          "type": "address"
        },
        {
          "internalType": "uint256",
          "name": "amount",
          "type": "uint256"
        }
      ],
      "name": "transferFrom",
      "outputs": [
        {
          "internalType": "bool",
          "name": "",
          "type": "bool"
        }
      ],
      "stateMutability": "nonpayable",
      "type": "function"
    },
    {
      "inputs": [],
      "name": "uniswapRouter",
      "outputs": [
        {
          "internalType": "contract ISwapRouter",
          "name": "",
          "type": "address"
        }
      ],
      "stateMutability": "view",
      "type": "function"
    },
    {
      "inputs": [],
      "name": "unpause",
      "outputs": [],
      "stateMutability": "nonpayable",
      "type": "function"
    },
    {
      "inputs": [],
      "name": "updateContract",
      "outputs": [],
      "stateMutability": "nonpayable",
      "type": "function"
    },
    {
      "inputs": [
        {
          "internalType": "address",
          "name": "newImplementation",
          "type": "address"
        }
      ],
      "name": "upgradeTo",
      "outputs": [],
      "stateMutability": "nonpayable",
      "type": "function"
    },
    {
      "inputs": [
        {
          "internalType": "address",
          "name": "newImplementation",
          "type": "address"
        },
        {
          "internalType": "bytes",
          "name": "data",
          "type": "bytes"
        }
      ],
      "name": "upgradeToAndCall",
      "outputs": [],
      "stateMutability": "payable",
      "type": "function"
    },
    {
      "inputs": [],
      "name": "votingContract",
      "outputs": [
        {
          "internalType": "address",
          "name": "",
          "type": "address"
        }
      ],
      "stateMutability": "view",
      "type": "function"
    },
    {
      "stateMutability": "payable",
      "type": "receive"
    }
  ],
  "bytecode": "0x60a0604052306080523480156200001557600080fd5b50600054610100900460ff1615808015620000375750600054600160ff909116105b8062000067575062000054306200014160201b62001e251760201c565b15801562000067575060005460ff166001145b620000cf5760405162461bcd60e51b815260206004820152602e60248201527f496e697469616c697a61626c653a20636f6e747261637420697320616c72656160448201526d191e481a5b9a5d1a585b1a5e995960921b606482015260840160405180910390fd5b6000805460ff191660011790558015620000f3576000805461ff0019166101001790555b80156200013a576000805461ff0019169055604051600181527f7f26b83ff96e1f2b6a682f133852f6798a09c465da95921460cefb38474024989060200160405180910390a15b5062000150565b6001600160a01b03163b151590565b60805161371e6200018860003960008181610e7601528181610eb601528181610fc1015281816110010152611090015261371e6000f3fe6080604052600436106102cd5760003560e01c806368bd580e11610175578063a217fddf116100dc578063d547741f11610095578063e6b436091161006f578063e6b4360914610870578063f0a3a97c14610891578063f5aa0200146108b3578063f72c0d8b146108c857600080fd5b8063d547741f14610810578063dd62ed3e14610830578063e4c3a8f81461085057600080fd5b8063a217fddf14610765578063a241c0891461077a578063a457c2d71461078f578063a9059cbb146107af578063c1fc006a146107cf578063d182de10146107f057600080fd5b80638456cb591161012e5780638456cb59146106c85780638d100a60146106dd57806391d14854146106fd57806395d89b411461071d5780639aedb88a14610732578063a0712d681461075257600080fd5b806368bd580e146105f257806370a082311461061357806372ac81c514610649578063735de9f71461066b57806379cc6790146106935780638129fc1c146106b357600080fd5b806334f1f563116102345780634624e6b2116101ed57806352d1902d116101c757806352d1902d1461057657806354cf2aeb1461058b5780635c975abb146105c357806363ec240a146105db57600080fd5b80634624e6b21461052c5780634b444c081461054c5780634f1ef2861461056357600080fd5b806334f1f5631461048257806336568abe146104975780633659cfe6146104b757806339509351146104d75780633f4ba83a146104f757806342966c681461050c57600080fd5b8063248a9ca311610286578063248a9ca3146103a65780632719920e146103d65780632f2ff15d146103ed578063301427221461040d578063313ce56714610446578063331108e91461046257600080fd5b806301ffc9a7146102d957806306fdde031461030e578063095ea7b31461033057806318160ddd146103505780631eef4b821461036f57806323b872dd1461038657600080fd5b366102d457005b600080fd5b3480156102e557600080fd5b506102f96102f4366004612fe6565b6108ea565b60405190151581526020015b60405180910390f35b34801561031a57600080fd5b50610323610921565b604051610305919061303c565b34801561033c57600080fd5b506102f961034b366004613084565b6109b3565b34801561035c57600080fd5b506035545b604051908152602001610305565b34801561037b57600080fd5b506103846109cb565b005b34801561039257600080fd5b506102f96103a13660046130b0565b610abc565b3480156103b257600080fd5b506103616103c13660046130f1565b600090815260fb602052604090206001015490565b3480156103e257600080fd5b506103616101955481565b3480156103f957600080fd5b5061038461040836600461310a565b610ae2565b34801561041957600080fd5b506101945461042e906001600160a01b031681565b6040516001600160a01b039091168152602001610305565b34801561045257600080fd5b5060405160128152602001610305565b34801561046e57600080fd5b5061038461047d36600461313a565b610b0c565b34801561048e57600080fd5b50610384610b83565b3480156104a357600080fd5b506103846104b236600461310a565b610df1565b3480156104c357600080fd5b506103846104d236600461313a565b610e6b565b3480156104e357600080fd5b506102f96104f2366004613084565b610f4b565b34801561050357600080fd5b50610384610f6d565b34801561051857600080fd5b506103846105273660046130f1565b610f8d565b34801561053857600080fd5b506103846105473660046130f1565b610f97565b34801561055857600080fd5b506103616101965481565b61038461057136600461316d565b610fb6565b34801561058257600080fd5b50610361611083565b34801561059757600080fd5b50610194546105af90600160a01b900462ffffff1681565b60405162ffffff9091168152602001610305565b3480156105cf57600080fd5b5060975460ff166102f9565b3480156105e757600080fd5b506103616101975481565b3480156105fe57600080fd5b506101935461042e906001600160a01b031681565b34801561061f57600080fd5b5061036161062e36600461313a565b6001600160a01b031660009081526033602052604090205490565b34801561065557600080fd5b5061036160008051602061364283398151915281565b34801561067757600080fd5b5061042e73e592427a0aece92de3edee1f18e0157c0586156481565b34801561069f57600080fd5b506103846106ae366004613084565b611136565b3480156106bf57600080fd5b5061038461114b565b3480156106d457600080fd5b506103846112ae565b3480156106e957600080fd5b506103846106f836600461313a565b6112ce565b34801561070957600080fd5b506102f961071836600461310a565b611344565b34801561072957600080fd5b5061032361136f565b34801561073e57600080fd5b5061038461074d3660046130f1565b61137e565b6103846107603660046130f1565b61139d565b34801561077157600080fd5b50610361600081565b34801561078657600080fd5b50610384611615565b34801561079b57600080fd5b506102f96107aa366004613084565b6116bf565b3480156107bb57600080fd5b506102f96107ca366004613084565b611745565b3480156107db57600080fd5b506101925461042e906001600160a01b031681565b3480156107fc57600080fd5b5061038461080b36600461313a565b611753565b34801561081c57600080fd5b5061038461082b36600461310a565b6117ba565b34801561083c57600080fd5b5061036161084b366004613231565b6117df565b34801561085c57600080fd5b5061038461086b36600461325f565b61180a565b34801561087c57600080fd5b506101915461042e906001600160a01b031681565b34801561089d57600080fd5b5061036160008051602061366283398151915281565b3480156108bf57600080fd5b50610384611850565b3480156108d457600080fd5b5061036160008051602061368283398151915281565b60006001600160e01b03198216637965db0b60e01b148061091b57506301ffc9a760e01b6001600160e01b03198316145b92915050565b60606036805461093090613284565b80601f016020809104026020016040519081016040528092919081815260200182805461095c90613284565b80156109a95780601f1061097e576101008083540402835291602001916109a9565b820191906000526020600020905b81548152906001019060200180831161098c57829003601f168201915b5050505050905090565b6000336109c1818585611e34565b5060019392505050565b6109d3611f58565b6000805160206136428339815191526109eb81611fa0565b61019654610197546109fd91906132d5565b4211610a675760405162461bcd60e51b815260206004820152602e60248201527f4e6f7420656e6f7567682074696d652068617320656c61707365642073696e6360448201526d19481b185cdd081c185e5b595b9d60921b60648201526084015b60405180910390fd5b610a7242600f6132d5565b6101975561019554610a85903390611faa565b6040513381527fc7b4b7d2648afbb056b4def367130dc7c7d1a0f3ab878b23b22516b809c54255906020015b60405180910390a150565b600033610aca858285612077565b610ad58585856120f1565b60019150505b9392505050565b600082815260fb6020526040902060010154610afd81611fa0565b610b0783836122a7565b505050565b600080516020613662833981519152610b2481611fa0565b61019280546001600160a01b0319166001600160a01b0384169081179091556040519081527f7ef6cd86fd4db38caed0f01956f9a23373ebd5e7a8e1d478cfda6b01d7f9addd906020015b60405180910390a1610b7f6112ae565b5050565b610191546001600160a01b03163314610bf15760405162461bcd60e51b815260206004820152602a60248201527f4f6e6c7920746865204368616e63656c6c6f722063616e207265636c61696d2060448201526974686973205365616c2160b01b6064820152608401610a5e565b61019354604080516318160ddd60e01b815290516001600160a01b039092169160009183916318160ddd916004808201926020929091908290030181865afa158015610c41573d6000803e3d6000fd5b505050506040513d601f19601f82011682018060405250810190610c6591906132ed565b11610cb25760405162461bcd60e51b815260206004820181905260248201527f546865205365616c20646f65736e27742063757272656e746c792065786973746044820152606401610a5e565b60405163095ea7b360e01b8152306004820152600160248201526001600160a01b0382169063095ea7b390604401600060405180830381600087803b158015610cfa57600080fd5b505af1158015610d0e573d6000803e3d6000fd5b50506040516331a9108f60e11b8152600160048201526001600160a01b03841692506342842e0e91508290636352211e90602401602060405180830381865afa158015610d5f573d6000803e3d6000fd5b505050506040513d601f19601f82011682018060405250810190610d839190613306565b6101915460405160e084901b6001600160e01b03191681526001600160a01b0392831660048201529116602482015260016044820152606401600060405180830381600087803b158015610dd657600080fd5b505af1158015610dea573d6000803e3d6000fd5b5050505050565b6001600160a01b0381163314610e615760405162461bcd60e51b815260206004820152602f60248201527f416363657373436f6e74726f6c3a2063616e206f6e6c792072656e6f756e636560448201526e103937b632b9903337b91039b2b63360891b6064820152608401610a5e565b610b7f828261232d565b306001600160a01b037f0000000000000000000000000000000000000000000000000000000000000000161415610eb45760405162461bcd60e51b8152600401610a5e90613323565b7f00000000000000000000000000000000000000000000000000000000000000006001600160a01b0316610efd6000805160206136a2833981519152546001600160a01b031690565b6001600160a01b031614610f235760405162461bcd60e51b8152600401610a5e9061336f565b610f2c81612394565b60408051600080825260208201909252610f48918391906123ac565b50565b6000336109c1818585610f5e83836117df565b610f6891906132d5565b611e34565b600080516020613662833981519152610f8581611fa0565b610f48612517565b610f483382612569565b600080516020613662833981519152610faf81611fa0565b5061019655565b306001600160a01b037f0000000000000000000000000000000000000000000000000000000000000000161415610fff5760405162461bcd60e51b8152600401610a5e90613323565b7f00000000000000000000000000000000000000000000000000000000000000006001600160a01b03166110486000805160206136a2833981519152546001600160a01b031690565b6001600160a01b03161461106e5760405162461bcd60e51b8152600401610a5e9061336f565b61107782612394565b610b7f828260016123ac565b6000306001600160a01b037f000000000000000000000000000000000000000000000000000000000000000016146111235760405162461bcd60e51b815260206004820152603860248201527f555550535570677261646561626c653a206d757374206e6f742062652063616c60448201527f6c6564207468726f7567682064656c656761746563616c6c00000000000000006064820152608401610a5e565b506000805160206136a283398151915290565b611141823383612077565b610b7f8282612569565b600054610100900460ff161580801561116b5750600054600160ff909116105b806111855750303b158015611185575060005460ff166001145b6111e85760405162461bcd60e51b815260206004820152602e60248201527f496e697469616c697a61626c653a20636f6e747261637420697320616c72656160448201526d191e481a5b9a5d1a585b1a5e995960921b6064820152608401610a5e565b6000805460ff19166001179055801561120b576000805461ff0019166101001790555b61124c6040518060400160405280600581526020016444414f626960d81b81525060405180604001604052806002815260200161222160f11b8152506126a9565b6112546126da565b61125c612701565b6112646126da565b61126c6126da565b8015610f48576000805461ff0019169055604051600181527f7f26b83ff96e1f2b6a682f133852f6798a09c465da95921460cefb384740249890602001610ab1565b6000805160206136628339815191526112c681611fa0565b610f48612730565b6112d6611f58565b6000805160206136628339815191526112ee81611fa0565b61019480546001600160a01b0319166001600160a01b0384169081179091556040519081527fdbe9339b298bfd2bf634c461a1aaea9048ddb90c78d2527334f6c0263bf08e4c9060200160405180910390a15050565b600091825260fb602090815260408084206001600160a01b0393909316845291905290205460ff1690565b60606037805461093090613284565b60008051602061366283398151915261139681611fa0565b5061019555565b6113a5611f58565b6000805160206136428339815191526113bd81611fa0565b6000821161140d5760405162461bcd60e51b815260206004820152601960248201527f4d7573742070617373206e6f6e203020444220616d6f756e74000000000000006044820152606401610a5e565b6101945461143290309061142d90600160a01b900462ffffff16856132d5565b611faa565b6101945461144e906001600160a01b031661142d6014856133bb565b6114817368af95a6f932a372e88170e9c2a46094faefd5d473e592427a0aece92de3edee1f18e0157c058615648461276d565b60408051610100810182527368af95a6f932a372e88170e9c2a46094faefd5d48152739c3c9283d3e44854697cd22d3faa240cfb032889602082015261019454600160a01b810462ffffff16928201929092526001600160a01b039091166060820152600090608081016114f64260786132d5565b8152602080820186905260016040808401919091526000606093840152805163414bf38960e01b815284516001600160a01b03908116600483015292850151831660248201529084015162ffffff16604482015291830151811660648301526080830151608483015260a083015160a483015260c083015160c483015260e08301511660e482015290915073e592427a0aece92de3edee1f18e0157c058615649063414bf38990610104016020604051808303816000875af11580156115c0573d6000803e3d6000fd5b505050506040513d601f19601f820116820180604052508101906115e491906132ed565b5060405183907f739335afcf9c97c0d4bdf58ad3730a52fe7eec8d0479fc587f1e0333d7b4e49f90600090a2505050565b60008051602061368283398151915261162d81611fa0565b6116386000336122a7565b611650600080516020613662833981519152336122a7565b611668600080516020613682833981519152336122a7565b61019480546001600160b81b031916750bb89f216b3644082530e6568755768786123dd56367179055601261169e90600a6134c1565b6116aa906103e86134d0565b61019555506201518061019655600061019755565b600033816116cd82866117df565b90508381101561172d5760405162461bcd60e51b815260206004820152602560248201527f45524332303a2064656372656173656420616c6c6f77616e63652062656c6f77604482015264207a65726f60d81b6064820152608401610a5e565b61173a8286868403611e34565b506001949350505050565b6000336109c18185856120f1565b60008051602061366283398151915261176b81611fa0565b61019380546001600160a01b0319166001600160a01b0384169081179091556040519081527f1fae460db24c1e389574561dbb627a230f5d83a6d8c79ec9b3483e0e029b52d590602001610b6f565b600082815260fb60205260409020600101546117d581611fa0565b610b07838361232d565b6001600160a01b03918216600090815260346020908152604080832093909416825291909152205490565b611812611f58565b60008051602061366283398151915261182a81611fa0565b50610194805462ffffff909216600160a01b0262ffffff60a01b19909216919091179055565b611858611f58565b610192546040516370a0823160e01b81523360048201526001600160a01b039091169060009082906370a0823190602401602060405180830381865afa1580156118a6573d6000803e3d6000fd5b505050506040513d601f19601f820116820180604052508101906118ca91906132ed565b1161192a5760405162461bcd60e51b815260206004820152602a60248201527f44616f62693a20596f7520646f6e2774206576656e2068617665206120766f74604482015269696e6720746f6b656e2160b01b6064820152608401610a5e565b604051630d00643b60e21b81523360048201526001600160a01b0382169063340190ec90602401602060405180830381865afa15801561196e573d6000803e3d6000fd5b505050506040513d601f19601f8201168201806040525081019061199291906134ef565b15156001146119f35760405162461bcd60e51b815260206004820152602760248201527f44616f62693a20596f7520686176652077697468647261776e2066726f6d20736044820152666572766963652160c81b6064820152608401610a5e565b60405163248d9a4b60e01b81523360048201526000906001600160a01b0383169063248d9a4b90602401602060405180830381865afa158015611a3a573d6000803e3d6000fd5b505050506040513d601f19601f82011682018060405250810190611a5e9190613511565b64ffffffffff1611611abd5760405162461bcd60e51b815260206004820152602260248201527f44616f62693a20596f75206e656564204154204c45415354206f6e6520766f74604482015261652160f01b6064820152608401610a5e565b610191546001600160a01b0316331415611b195760405162461bcd60e51b815260206004820152601b60248201527f596f752061726520616c7265616479204368616e63656c6c6f722100000000006044820152606401610a5e565b61019154604051630d00643b60e21b81526001600160a01b0391821660048201529082169063340190ec90602401602060405180830381865afa158015611b64573d6000803e3d6000fd5b505050506040513d601f19601f82011682018060405250810190611b8891906134ef565b611c3c5760405163248d9a4b60e01b81523360048201819052907f75d4efd6ebdb2308a720be5abb4ecf6f33d4259176f770a1a406505d0e52d90c906001600160a01b0384169063248d9a4b906024015b602060405180830381865afa158015611bf6573d6000803e3d6000fd5b505050506040513d601f19601f82011682018060405250810190611c1a9190613511565b60405164ffffffffff909116815260200160405180910390a2610f4833612866565b6101915460405163248d9a4b60e01b81526001600160a01b0391821660048201529082169063248d9a4b90602401602060405180830381865afa158015611c87573d6000803e3d6000fd5b505050506040513d601f19601f82011682018060405250810190611cab9190613511565b60405163248d9a4b60e01b815233600482015264ffffffffff91909116906001600160a01b0383169063248d9a4b90602401602060405180830381865afa158015611cfa573d6000803e3d6000fd5b505050506040513d601f19601f82011682018060405250810190611d1e9190613511565b64ffffffffff161115611d7c5760405163248d9a4b60e01b81523360048201819052907f75d4efd6ebdb2308a720be5abb4ecf6f33d4259176f770a1a406505d0e52d90c906001600160a01b0384169063248d9a4b90602401611bd9565b60405163248d9a4b60e01b81523360048201819052907f91f30866224d8fa50da9ab5ea72526803b857489151874041bcdb5d4a46c2862906001600160a01b0384169063248d9a4b90602401602060405180830381865afa158015611de5573d6000803e3d6000fd5b505050506040513d601f19601f82011682018060405250810190611e099190613511565b60405164ffffffffff909116815260200160405180910390a250565b6001600160a01b03163b151590565b6001600160a01b038316611e965760405162461bcd60e51b8152602060048201526024808201527f45524332303a20617070726f76652066726f6d20746865207a65726f206164646044820152637265737360e01b6064820152608401610a5e565b6001600160a01b038216611ef75760405162461bcd60e51b815260206004820152602260248201527f45524332303a20617070726f766520746f20746865207a65726f206164647265604482015261737360f01b6064820152608401610a5e565b6001600160a01b0383811660008181526034602090815260408083209487168084529482529182902085905590518481527f8c5be1e5ebec7d5bd14f71427d1e84f3dd0314c0f7b2291e5b200ac8c7c3b925910160405180910390a3505050565b60975460ff1615611f9e5760405162461bcd60e51b815260206004820152601060248201526f14185d5cd8589b194e881c185d5cd95960821b6044820152606401610a5e565b565b610f488133612a41565b6001600160a01b0382166120005760405162461bcd60e51b815260206004820152601f60248201527f45524332303a206d696e7420746f20746865207a65726f2061646472657373006044820152606401610a5e565b61200c60008383612a9a565b806035600082825461201e91906132d5565b90915550506001600160a01b0382166000818152603360209081526040808320805486019055518481527fddf252ad1be2c89b69c2b068fc378daa952ba7f163c4a11628f55a4df523b3ef910160405180910390a35050565b600061208384846117df565b905060001981146120eb57818110156120de5760405162461bcd60e51b815260206004820152601d60248201527f45524332303a20696e73756666696369656e7420616c6c6f77616e63650000006044820152606401610a5e565b6120eb8484848403611e34565b50505050565b6001600160a01b0383166121555760405162461bcd60e51b815260206004820152602560248201527f45524332303a207472616e736665722066726f6d20746865207a65726f206164604482015264647265737360d81b6064820152608401610a5e565b6001600160a01b0382166121b75760405162461bcd60e51b815260206004820152602360248201527f45524332303a207472616e7366657220746f20746865207a65726f206164647260448201526265737360e81b6064820152608401610a5e565b6121c2838383612a9a565b6001600160a01b0383166000908152603360205260409020548181101561223a5760405162461bcd60e51b815260206004820152602660248201527f45524332303a207472616e7366657220616d6f756e7420657863656564732062604482015265616c616e636560d01b6064820152608401610a5e565b6001600160a01b0380851660008181526033602052604080822086860390559286168082529083902080548601905591517fddf252ad1be2c89b69c2b068fc378daa952ba7f163c4a11628f55a4df523b3ef9061229a9086815260200190565b60405180910390a36120eb565b6122b18282611344565b610b7f57600082815260fb602090815260408083206001600160a01b03851684529091529020805460ff191660011790556122e93390565b6001600160a01b0316816001600160a01b0316837f2f8788117e7eff1d82e926ec794901d17c78024a50270940304540a733656f0d60405160405180910390a45050565b6123378282611344565b15610b7f57600082815260fb602090815260408083206001600160a01b0385168085529252808320805460ff1916905551339285917ff6391f5c32d9c69d2a47ea670b442974b53935d1edc7fd64eb21e047a839171b9190a45050565b600080516020613682833981519152610b7f81611fa0565b7f4910fdfa16fed3260ed0e7147f7cc6da11a60208b5b9406d12a635614ffd91435460ff16156123df57610b0783612aa2565b826001600160a01b03166352d1902d6040518163ffffffff1660e01b8152600401602060405180830381865afa925050508015612439575060408051601f3d908101601f19168201909252612436918101906132ed565b60015b61249c5760405162461bcd60e51b815260206004820152602e60248201527f45524331393637557067726164653a206e657720696d706c656d656e7461746960448201526d6f6e206973206e6f74205555505360901b6064820152608401610a5e565b6000805160206136a2833981519152811461250b5760405162461bcd60e51b815260206004820152602960248201527f45524331393637557067726164653a20756e737570706f727465642070726f786044820152681a58589b195555525160ba1b6064820152608401610a5e565b50610b07838383612b3e565b61251f612b63565b6097805460ff191690557f5db9ee0a495bf2e6ff9c91a7834c1ba4fdd244a5e8aa4e537bd38aeae4b073aa335b6040516001600160a01b03909116815260200160405180910390a1565b6001600160a01b0382166125c95760405162461bcd60e51b815260206004820152602160248201527f45524332303a206275726e2066726f6d20746865207a65726f206164647265736044820152607360f81b6064820152608401610a5e565b6125d582600083612a9a565b6001600160a01b038216600090815260336020526040902054818110156126495760405162461bcd60e51b815260206004820152602260248201527f45524332303a206275726e20616d6f756e7420657863656564732062616c616e604482015261636560f01b6064820152608401610a5e565b6001600160a01b03831660008181526033602090815260408083208686039055603580548790039055518581529192917fddf252ad1be2c89b69c2b068fc378daa952ba7f163c4a11628f55a4df523b3ef910160405180910390a3505050565b600054610100900460ff166126d05760405162461bcd60e51b8152600401610a5e90613538565b610b7f8282612bac565b600054610100900460ff16611f9e5760405162461bcd60e51b8152600401610a5e90613538565b600054610100900460ff166127285760405162461bcd60e51b8152600401610a5e90613538565b611f9e612bfa565b612738611f58565b6097805460ff191660011790557f62e78cea01bee320cd4e420270b5ea74000d11b0c9f74754ebdbfc544b05a25861254c3390565b604080516001600160a01b038481166024830152604480830185905283518084039091018152606490920183526020820180516001600160e01b031663095ea7b360e01b17905291516000928392908716916127c99190613583565b6000604051808303816000865af19150503d8060008114612806576040519150601f19603f3d011682016040523d82523d6000602084013e61280b565b606091505b509150915081801561283557508051158061283557508080602001905181019061283591906134ef565b610dea5760405162461bcd60e51b8152602060048201526002602482015261534160f01b6044820152606401610a5e565b6101935460405163095ea7b360e01b8152306004820152600160248201526001600160a01b0390911690819063095ea7b390604401600060405180830381600087803b1580156128b557600080fd5b505af11580156128c9573d6000803e3d6000fd5b50506040516331a9108f60e11b8152600160048201526001600160a01b03841692506323b872dd91508290636352211e90602401602060405180830381865afa15801561291a573d6000803e3d6000fd5b505050506040513d601f19601f8201168201806040525081019061293e9190613306565b6040516001600160e01b031960e084901b1681526001600160a01b039182166004820152908516602482015260016044820152606401600060405180830381600087803b15801561298e57600080fd5b505af11580156129a2573d6000803e3d6000fd5b5050610191546129cc925060008051602061364283398151915291506001600160a01b031661232d565b61019180546001600160a01b0319166001600160a01b038416908117909155612a0490600080516020613642833981519152906122a7565b610191546040516001600160a01b03909116907fd603864067f89366c2960f42e273ad351ab10302bb38bfd20ee6f49a40efb81590600090a25050565b612a4b8282611344565b610b7f57612a5881612c2d565b612a63836020612c3f565b604051602001612a7492919061359f565b60408051601f198184030181529082905262461bcd60e51b8252610a5e9160040161303c565b610b07611f58565b6001600160a01b0381163b612b0f5760405162461bcd60e51b815260206004820152602d60248201527f455243313936373a206e657720696d706c656d656e746174696f6e206973206e60448201526c1bdd08184818dbdb9d1c9858dd609a1b6064820152608401610a5e565b6000805160206136a283398151915280546001600160a01b0319166001600160a01b0392909216919091179055565b612b4783612ddb565b600082511180612b545750805b15610b07576120eb8383612e1b565b60975460ff16611f9e5760405162461bcd60e51b815260206004820152601460248201527314185d5cd8589b194e881b9bdd081c185d5cd95960621b6044820152606401610a5e565b600054610100900460ff16612bd35760405162461bcd60e51b8152600401610a5e90613538565b8151612be6906036906020850190612f4d565b508051610b07906037906020840190612f4d565b600054610100900460ff16612c215760405162461bcd60e51b8152600401610a5e90613538565b6097805460ff19169055565b606061091b6001600160a01b03831660145b60606000612c4e8360026134d0565b612c599060026132d5565b67ffffffffffffffff811115612c7157612c71613157565b6040519080825280601f01601f191660200182016040528015612c9b576020820181803683370190505b509050600360fc1b81600081518110612cb657612cb6613614565b60200101906001600160f81b031916908160001a905350600f60fb1b81600181518110612ce557612ce5613614565b60200101906001600160f81b031916908160001a9053506000612d098460026134d0565b612d149060016132d5565b90505b6001811115612d8c576f181899199a1a9b1b9c1cb0b131b232b360811b85600f1660108110612d4857612d48613614565b1a60f81b828281518110612d5e57612d5e613614565b60200101906001600160f81b031916908160001a90535060049490941c93612d858161362a565b9050612d17565b508315610adb5760405162461bcd60e51b815260206004820181905260248201527f537472696e67733a20686578206c656e67746820696e73756666696369656e746044820152606401610a5e565b612de481612aa2565b6040516001600160a01b038216907fbc7cd75a20ee27fd9adebab32041f755214dbc6bffa90cc0225b39da2e5c2d3b90600090a250565b60606001600160a01b0383163b612e835760405162461bcd60e51b815260206004820152602660248201527f416464726573733a2064656c65676174652063616c6c20746f206e6f6e2d636f6044820152651b9d1c9858dd60d21b6064820152608401610a5e565b600080846001600160a01b031684604051612e9e9190613583565b600060405180830381855af49150503d8060008114612ed9576040519150601f19603f3d011682016040523d82523d6000602084013e612ede565b606091505b5091509150612f0682826040518060600160405280602781526020016136c260279139612f0f565b95945050505050565b60608315612f1e575081610adb565b610adb8383815115612f335781518083602001fd5b8060405162461bcd60e51b8152600401610a5e919061303c565b828054612f5990613284565b90600052602060002090601f016020900481019282612f7b5760008555612fc1565b82601f10612f9457805160ff1916838001178555612fc1565b82800160010185558215612fc1579182015b82811115612fc1578251825591602001919060010190612fa6565b50612fcd929150612fd1565b5090565b5b80821115612fcd5760008155600101612fd2565b600060208284031215612ff857600080fd5b81356001600160e01b031981168114610adb57600080fd5b60005b8381101561302b578181015183820152602001613013565b838111156120eb5750506000910152565b602081526000825180602084015261305b816040850160208701613010565b601f01601f19169190910160400192915050565b6001600160a01b0381168114610f4857600080fd5b6000806040838503121561309757600080fd5b82356130a28161306f565b946020939093013593505050565b6000806000606084860312156130c557600080fd5b83356130d08161306f565b925060208401356130e08161306f565b929592945050506040919091013590565b60006020828403121561310357600080fd5b5035919050565b6000806040838503121561311d57600080fd5b82359150602083013561312f8161306f565b809150509250929050565b60006020828403121561314c57600080fd5b8135610adb8161306f565b634e487b7160e01b600052604160045260246000fd5b6000806040838503121561318057600080fd5b823561318b8161306f565b9150602083013567ffffffffffffffff808211156131a857600080fd5b818501915085601f8301126131bc57600080fd5b8135818111156131ce576131ce613157565b604051601f8201601f19908116603f011681019083821181831017156131f6576131f6613157565b8160405282815288602084870101111561320f57600080fd5b8260208601602083013760006020848301015280955050505050509250929050565b6000806040838503121561324457600080fd5b823561324f8161306f565b9150602083013561312f8161306f565b60006020828403121561327157600080fd5b813562ffffff81168114610adb57600080fd5b600181811c9082168061329857607f821691505b602082108114156132b957634e487b7160e01b600052602260045260246000fd5b50919050565b634e487b7160e01b600052601160045260246000fd5b600082198211156132e8576132e86132bf565b500190565b6000602082840312156132ff57600080fd5b5051919050565b60006020828403121561331857600080fd5b8151610adb8161306f565b6020808252602c908201527f46756e6374696f6e206d7573742062652063616c6c6564207468726f7567682060408201526b19195b1959d85d1958d85b1b60a21b606082015260800190565b6020808252602c908201527f46756e6374696f6e206d7573742062652063616c6c6564207468726f7567682060408201526b6163746976652070726f787960a01b606082015260800190565b6000826133d857634e487b7160e01b600052601260045260246000fd5b500490565b600181815b808511156134185781600019048211156133fe576133fe6132bf565b8085161561340b57918102915b93841c93908002906133e2565b509250929050565b60008261342f5750600161091b565b8161343c5750600061091b565b8160018114613452576002811461345c57613478565b600191505061091b565b60ff84111561346d5761346d6132bf565b50506001821b61091b565b5060208310610133831016604e8410600b841016171561349b575081810a61091b565b6134a583836133dd565b80600019048211156134b9576134b96132bf565b029392505050565b6000610adb60ff841683613420565b60008160001904831182151516156134ea576134ea6132bf565b500290565b60006020828403121561350157600080fd5b81518015158114610adb57600080fd5b60006020828403121561352357600080fd5b815164ffffffffff81168114610adb57600080fd5b6020808252602b908201527f496e697469616c697a61626c653a20636f6e7472616374206973206e6f74206960408201526a6e697469616c697a696e6760a81b606082015260800190565b60008251613595818460208701613010565b9190910192915050565b7f416363657373436f6e74726f6c3a206163636f756e74200000000000000000008152600083516135d7816017850160208801613010565b7001034b99036b4b9b9b4b733903937b6329607d1b6017918401918201528351613608816028840160208801613010565b01602801949350505050565b634e487b7160e01b600052603260045260246000fd5b600081613639576136396132bf565b50600019019056fef6d6cd56776f96922da5fbd5b1487ee0ce404c60abe315fa4a2995e1bf8a00bb3496e2e73c4d42b75d702e60d9e48102720b8691234415963a5a857b86425d07189ab7a9244df0848122154315af71fe140f3db0fe014031783b0946b8c9d2e3360894a13ba1a3210667c828492db98dca3e2076cc3735a920a3ca505d382bbc416464726573733a206c6f772d6c6576656c2064656c65676174652063616c6c206661696c6564a264697066735822122067c9cb1b65ae25f5545998c3364d6a29001d0fc2fcee6455b3f4ae195535e30264736f6c634300080a0033",
  "linkReferences": {},
  "deployedLinkReferences": {}
}