{
  "_format": "hh-sol-artifact-1",
  "contractName": "DAObiContract2",
  "sourceName": "contracts/DAObiContract2.sol",
  "abi": [
    {
      "inputs": [],
      "stateMutability": "nonpayable",
      "type": "constructor"
    },
    {
      "anonymous": false,
      "inputs": [
        {
          "indexed": false,
          "internalType": "address",
          "name": "previousAdmin",
          "type": "address"
        },
        {
          "indexed": false,
          "internalType": "address",
          "name": "newAdmin",
          "type": "address"
        }
      ],
      "name": "AdminChanged",
      "type": "event"
    },
    {
      "anonymous": false,
      "inputs": [
        {
          "indexed": true,
          "internalType": "address",
          "name": "owner",
          "type": "address"
        },
        {
          "indexed": true,
          "internalType": "address",
          "name": "spender",
          "type": "address"
        },
        {
          "indexed": false,
          "internalType": "uint256",
          "name": "value",
          "type": "uint256"
        }
      ],
      "name": "Approval",
      "type": "event"
    },
    {
      "anonymous": false,
      "inputs": [
        {
          "indexed": true,
          "internalType": "address",
          "name": "beacon",
          "type": "address"
        }
      ],
      "name": "BeaconUpgraded",
      "type": "event"
    },
    {
      "anonymous": false,
      "inputs": [
        {
          "indexed": false,
          "internalType": "uint8",
          "name": "version",
          "type": "uint8"
        }
      ],
      "name": "Initialized",
      "type": "event"
    },
    {
      "anonymous": false,
      "inputs": [
        {
          "indexed": false,
          "internalType": "address",
          "name": "account",
          "type": "address"
        }
      ],
      "name": "Paused",
      "type": "event"
    },
    {
      "anonymous": false,
      "inputs": [
        {
          "indexed": true,
          "internalType": "bytes32",
          "name": "role",
          "type": "bytes32"
        },
        {
          "indexed": true,
          "internalType": "bytes32",
          "name": "previousAdminRole",
          "type": "bytes32"
        },
        {
          "indexed": true,
          "internalType": "bytes32",
          "name": "newAdminRole",
          "type": "bytes32"
        }
      ],
      "name": "RoleAdminChanged",
      "type": "event"
    },
    {
      "anonymous": false,
      "inputs": [
        {
          "indexed": true,
          "internalType": "bytes32",
          "name": "role",
          "type": "bytes32"
        },
        {
          "indexed": true,
          "internalType": "address",
          "name": "account",
          "type": "address"
        },
        {
          "indexed": true,
          "internalType": "address",
          "name": "sender",
          "type": "address"
        }
      ],
      "name": "RoleGranted",
      "type": "event"
    },
    {
      "anonymous": false,
      "inputs": [
        {
          "indexed": true,
          "internalType": "bytes32",
          "name": "role",
          "type": "bytes32"
        },
        {
          "indexed": true,
          "internalType": "address",
          "name": "account",
          "type": "address"
        },
        {
          "indexed": true,
          "internalType": "address",
          "name": "sender",
          "type": "address"
        }
      ],
      "name": "RoleRevoked",
      "type": "event"
    },
    {
      "anonymous": false,
      "inputs": [
        {
          "indexed": true,
          "internalType": "address",
          "name": "from",
          "type": "address"
        },
        {
          "indexed": true,
          "internalType": "address",
          "name": "to",
          "type": "address"
        },
        {
          "indexed": false,
          "internalType": "uint256",
          "name": "value",
          "type": "uint256"
        }
      ],
      "name": "Transfer",
      "type": "event"
    },
    {
      "anonymous": false,
      "inputs": [
        {
          "indexed": false,
          "internalType": "address",
          "name": "account",
          "type": "address"
        }
      ],
      "name": "Unpaused",
      "type": "event"
    },
    {
      "anonymous": false,
      "inputs": [
        {
          "indexed": true,
          "internalType": "address",
          "name": "implementation",
          "type": "address"
        }
      ],
      "name": "Upgraded",
      "type": "event"
    },
    {
      "inputs": [],
      "name": "DEFAULT_ADMIN_ROLE",
      "outputs": [
        {
          "internalType": "bytes32",
          "name": "",
          "type": "bytes32"
        }
      ],
      "stateMutability": "view",
      "type": "function"
    },
    {
      "inputs": [],
      "name": "MINTER_ROLE",
      "outputs": [
        {
          "internalType": "bytes32",
          "name": "",
          "type": "bytes32"
        }
      ],
      "stateMutability": "view",
      "type": "function"
    },
    {
      "inputs": [],
      "name": "PAUSER_ROLE",
      "outputs": [
        {
          "internalType": "bytes32",
          "name": "",
          "type": "bytes32"
        }
      ],
      "stateMutability": "view",
      "type": "function"
    },
    {
      "inputs": [],
      "name": "UPGRADER_ROLE",
      "outputs": [
        {
          "internalType": "bytes32",
          "name": "",
          "type": "bytes32"
        }
      ],
      "stateMutability": "view",
      "type": "function"
    },
    {
      "inputs": [
        {
          "internalType": "address",
          "name": "owner",
          "type": "address"
        },
        {
          "internalType": "address",
          "name": "spender",
          "type": "address"
        }
      ],
      "name": "allowance",
      "outputs": [
        {
          "internalType": "uint256",
          "name": "",
          "type": "uint256"
        }
      ],
      "stateMutability": "view",
      "type": "function"
    },
    {
      "inputs": [
        {
          "internalType": "address",
          "name": "spender",
          "type": "address"
        },
        {
          "internalType": "uint256",
          "name": "amount",
          "type": "uint256"
        }
      ],
      "name": "approve",
      "outputs": [
        {
          "internalType": "bool",
          "name": "",
          "type": "bool"
        }
      ],
      "stateMutability": "nonpayable",
      "type": "function"
    },
    {
      "inputs": [
        {
          "internalType": "address",
          "name": "account",
          "type": "address"
        }
      ],
      "name": "balanceOf",
      "outputs": [
        {
          "internalType": "uint256",
          "name": "",
          "type": "uint256"
        }
      ],
      "stateMutability": "view",
      "type": "function"
    },
    {
      "inputs": [
        {
          "internalType": "uint256",
          "name": "amount",
          "type": "uint256"
        }
      ],
      "name": "burn",
      "outputs": [],
      "stateMutability": "nonpayable",
      "type": "function"
    },
    {
      "inputs": [
        {
          "internalType": "address",
          "name": "account",
          "type": "address"
        },
        {
          "internalType": "uint256",
          "name": "amount",
          "type": "uint256"
        }
      ],
      "name": "burnFrom",
      "outputs": [],
      "stateMutability": "nonpayable",
      "type": "function"
    },
    {
      "inputs": [],
      "name": "decimals",
      "outputs": [
        {
          "internalType": "uint8",
          "name": "",
          "type": "uint8"
        }
      ],
      "stateMutability": "view",
      "type": "function"
    },
    {
      "inputs": [
        {
          "internalType": "address",
          "name": "spender",
          "type": "address"
        },
        {
          "internalType": "uint256",
          "name": "subtractedValue",
          "type": "uint256"
        }
      ],
      "name": "decreaseAllowance",
      "outputs": [
        {
          "internalType": "bool",
          "name": "",
          "type": "bool"
        }
      ],
      "stateMutability": "nonpayable",
      "type": "function"
    },
    {
      "inputs": [
        {
          "internalType": "bytes32",
          "name": "role",
          "type": "bytes32"
        }
      ],
      "name": "getRoleAdmin",
      "outputs": [
        {
          "internalType": "bytes32",
          "name": "",
          "type": "bytes32"
        }
      ],
      "stateMutability": "view",
      "type": "function"
    },
    {
      "inputs": [
        {
          "internalType": "bytes32",
          "name": "role",
          "type": "bytes32"
        },
        {
          "internalType": "address",
          "name": "account",
          "type": "address"
        }
      ],
      "name": "grantRole",
      "outputs": [],
      "stateMutability": "nonpayable",
      "type": "function"
    },
    {
      "inputs": [
        {
          "internalType": "bytes32",
          "name": "role",
          "type": "bytes32"
        },
        {
          "internalType": "address",
          "name": "account",
          "type": "address"
        }
      ],
      "name": "hasRole",
      "outputs": [
        {
          "internalType": "bool",
          "name": "",
          "type": "bool"
        }
      ],
      "stateMutability": "view",
      "type": "function"
    },
    {
      "inputs": [
        {
          "internalType": "address",
          "name": "spender",
          "type": "address"
        },
        {
          "internalType": "uint256",
          "name": "addedValue",
          "type": "uint256"
        }
      ],
      "name": "increaseAllowance",
      "outputs": [
        {
          "internalType": "bool",
          "name": "",
          "type": "bool"
        }
      ],
      "stateMutability": "nonpayable",
      "type": "function"
    },
    {
      "inputs": [],
      "name": "initialize",
      "outputs": [],
      "stateMutability": "nonpayable",
      "type": "function"
    },
    {
      "inputs": [
        {
          "internalType": "address",
          "name": "to",
          "type": "address"
        },
        {
          "internalType": "uint256",
          "name": "amount",
          "type": "uint256"
        }
      ],
      "name": "mint",
      "outputs": [],
      "stateMutability": "nonpayable",
      "type": "function"
    },
    {
      "inputs": [],
      "name": "name",
      "outputs": [
        {
          "internalType": "string",
          "name": "",
          "type": "string"
        }
      ],
      "stateMutability": "view",
      "type": "function"
    },
    {
      "inputs": [],
      "name": "pause",
      "outputs": [],
      "stateMutability": "nonpayable",
      "type": "function"
    },
    {
      "inputs": [],
      "name": "paused",
      "outputs": [
        {
          "internalType": "bool",
          "name": "",
          "type": "bool"
        }
      ],
      "stateMutability": "view",
      "type": "function"
    },
    {
      "inputs": [],
      "name": "proxiableUUID",
      "outputs": [
        {
          "internalType": "bytes32",
          "name": "",
          "type": "bytes32"
        }
      ],
      "stateMutability": "view",
      "type": "function"
    },
    {
      "inputs": [
        {
          "internalType": "bytes32",
          "name": "role",
          "type": "bytes32"
        },
        {
          "internalType": "address",
          "name": "account",
          "type": "address"
        }
      ],
      "name": "renounceRole",
      "outputs": [],
      "stateMutability": "nonpayable",
      "type": "function"
    },
    {
      "inputs": [
        {
          "internalType": "bytes32",
          "name": "role",
          "type": "bytes32"
        },
        {
          "internalType": "address",
          "name": "account",
          "type": "address"
        }
      ],
      "name": "revokeRole",
      "outputs": [],
      "stateMutability": "nonpayable",
      "type": "function"
    },
    {
      "inputs": [
        {
          "internalType": "bytes4",
          "name": "interfaceId",
          "type": "bytes4"
        }
      ],
      "name": "supportsInterface",
      "outputs": [
        {
          "internalType": "bool",
          "name": "",
          "type": "bool"
        }
      ],
      "stateMutability": "view",
      "type": "function"
    },
    {
      "inputs": [],
      "name": "symbol",
      "outputs": [
        {
          "internalType": "string",
          "name": "",
          "type": "string"
        }
      ],
      "stateMutability": "view",
      "type": "function"
    },
    {
      "inputs": [],
      "name": "totalSupply",
      "outputs": [
        {
          "internalType": "uint256",
          "name": "",
          "type": "uint256"
        }
      ],
      "stateMutability": "view",
      "type": "function"
    },
    {
      "inputs": [
        {
          "internalType": "address",
          "name": "to",
          "type": "address"
        },
        {
          "internalType": "uint256",
          "name": "amount",
          "type": "uint256"
        }
      ],
      "name": "transfer",
      "outputs": [
        {
          "internalType": "bool",
          "name": "",
          "type": "bool"
        }
      ],
      "stateMutability": "nonpayable",
      "type": "function"
    },
    {
      "inputs": [
        {
          "internalType": "address",
          "name": "from",
          "type": "address"
        },
        {
          "internalType": "address",
          "name": "to",
          "type": "address"
        },
        {
          "internalType": "uint256",
          "name": "amount",
          "type": "uint256"
        }
      ],
      "name": "transferFrom",
      "outputs": [
        {
          "internalType": "bool",
          "name": "",
          "type": "bool"
        }
      ],
      "stateMutability": "nonpayable",
      "type": "function"
    },
    {
      "inputs": [],
      "name": "unpause",
      "outputs": [],
      "stateMutability": "nonpayable",
      "type": "function"
    },
    {
      "inputs": [
        {
          "internalType": "address",
          "name": "newImplementation",
          "type": "address"
        }
      ],
      "name": "upgradeTo",
      "outputs": [],
      "stateMutability": "nonpayable",
      "type": "function"
    },
    {
      "inputs": [
        {
          "internalType": "address",
          "name": "newImplementation",
          "type": "address"
        },
        {
          "internalType": "bytes",
          "name": "data",
          "type": "bytes"
        }
      ],
      "name": "upgradeToAndCall",
      "outputs": [],
      "stateMutability": "payable",
      "type": "function"
    }
  ],
  "bytecode": "0x60a0604052306080523480156200001557600080fd5b50600054610100900460ff1615808015620000375750600054600160ff909116105b8062000067575062000054306200014160201b62000dbd1760201c565b15801562000067575060005460ff166001145b620000cf5760405162461bcd60e51b815260206004820152602e60248201527f496e697469616c697a61626c653a20636f6e747261637420697320616c72656160448201526d191e481a5b9a5d1a585b1a5e995960921b606482015260840160405180910390fd5b6000805460ff191660011790558015620000f3576000805461ff0019166101001790555b80156200013a576000805461ff0019169055604051600181527f7f26b83ff96e1f2b6a682f133852f6798a09c465da95921460cefb38474024989060200160405180910390a15b5062000150565b6001600160a01b03163b151590565b6080516122fb6200018860003960008181610789015281816107c9015281816108e90152818161092901526109b801526122fb6000f3fe6080604052600436106101d85760003560e01c806352d1902d11610102578063a217fddf11610095578063d547741f11610064578063d547741f14610534578063dd62ed3e14610554578063e63ab1e914610574578063f72c0d8b1461059657600080fd5b8063a217fddf146104ab578063a457c2d7146104c0578063a9059cbb146104e0578063d53913931461050057600080fd5b80638129fc1c116100d15780638129fc1c1461044c5780638456cb591461046157806391d148541461047657806395d89b411461049657600080fd5b806352d1902d146103c95780635c975abb146103de57806370a08231146103f657806379cc67901461042c57600080fd5b8063313ce5671161017a5780633f4ba83a116101495780633f4ba83a1461036157806340c10f191461037657806342966c68146103965780634f1ef286146103b657600080fd5b8063313ce567146102e557806336568abe146103015780633659cfe614610321578063395093511461034157600080fd5b806318160ddd116101b657806318160ddd1461025457806323b872dd14610273578063248a9ca3146102935780632f2ff15d146102c357600080fd5b806301ffc9a7146101dd57806306fdde0314610212578063095ea7b314610234575b600080fd5b3480156101e957600080fd5b506101fd6101f8366004611cbc565b6105ca565b60405190151581526020015b60405180910390f35b34801561021e57600080fd5b50610227610601565b6040516102099190611d12565b34801561024057600080fd5b506101fd61024f366004611d61565b610693565b34801561026057600080fd5b506035545b604051908152602001610209565b34801561027f57600080fd5b506101fd61028e366004611d8b565b6106ab565b34801561029f57600080fd5b506102656102ae366004611dc7565b600090815260fb602052604090206001015490565b3480156102cf57600080fd5b506102e36102de366004611de0565b6106d1565b005b3480156102f157600080fd5b5060405160128152602001610209565b34801561030d57600080fd5b506102e361031c366004611de0565b6106fb565b34801561032d57600080fd5b506102e361033c366004611e0c565b61077e565b34801561034d57600080fd5b506101fd61035c366004611d61565b61085e565b34801561036d57600080fd5b506102e3610880565b34801561038257600080fd5b506102e3610391366004611d61565b6108a0565b3480156103a257600080fd5b506102e36103b1366004611dc7565b6108d4565b6102e36103c4366004611e3d565b6108de565b3480156103d557600080fd5b506102656109ab565b3480156103ea57600080fd5b5060975460ff166101fd565b34801561040257600080fd5b50610265610411366004611e0c565b6001600160a01b031660009081526033602052604090205490565b34801561043857600080fd5b506102e3610447366004611d61565b610a5e565b34801561045857600080fd5b506102e3610a73565b34801561046d57600080fd5b506102e3610c7f565b34801561048257600080fd5b506101fd610491366004611de0565b610c9f565b3480156104a257600080fd5b50610227610cca565b3480156104b757600080fd5b50610265600081565b3480156104cc57600080fd5b506101fd6104db366004611d61565b610cd9565b3480156104ec57600080fd5b506101fd6104fb366004611d61565b610d5f565b34801561050c57600080fd5b506102657f9f2df0fed2c77648de5860a4cc508cd0818c85b8b8a1ab4ceeef8d981c8956a681565b34801561054057600080fd5b506102e361054f366004611de0565b610d6d565b34801561056057600080fd5b5061026561056f366004611eff565b610d92565b34801561058057600080fd5b5061026560008051602061227f83398151915281565b3480156105a257600080fd5b506102657f189ab7a9244df0848122154315af71fe140f3db0fe014031783b0946b8c9d2e381565b60006001600160e01b03198216637965db0b60e01b14806105fb57506301ffc9a760e01b6001600160e01b03198316145b92915050565b60606036805461061090611f29565b80601f016020809104026020016040519081016040528092919081815260200182805461063c90611f29565b80156106895780601f1061065e57610100808354040283529160200191610689565b820191906000526020600020905b81548152906001019060200180831161066c57829003601f168201915b5050505050905090565b6000336106a1818585610dcc565b5060019392505050565b6000336106b9858285610ef0565b6106c4858585610f6a565b60019150505b9392505050565b600082815260fb60205260409020600101546106ec81611120565b6106f6838361112a565b505050565b6001600160a01b03811633146107705760405162461bcd60e51b815260206004820152602f60248201527f416363657373436f6e74726f6c3a2063616e206f6e6c792072656e6f756e636560448201526e103937b632b9903337b91039b2b63360891b60648201526084015b60405180910390fd5b61077a82826111b0565b5050565b306001600160a01b037f00000000000000000000000000000000000000000000000000000000000000001614156107c75760405162461bcd60e51b815260040161076790611f64565b7f00000000000000000000000000000000000000000000000000000000000000006001600160a01b031661081060008051602061225f833981519152546001600160a01b031690565b6001600160a01b0316146108365760405162461bcd60e51b815260040161076790611fb0565b61083f81611217565b6040805160008082526020820190925261085b91839190611241565b50565b6000336106a18185856108718383610d92565b61087b9190612012565b610dcc565b60008051602061227f83398151915261089881611120565b61085b6113ac565b7f9f2df0fed2c77648de5860a4cc508cd0818c85b8b8a1ab4ceeef8d981c8956a66108ca81611120565b6106f683836113fe565b61085b33826114cb565b306001600160a01b037f00000000000000000000000000000000000000000000000000000000000000001614156109275760405162461bcd60e51b815260040161076790611f64565b7f00000000000000000000000000000000000000000000000000000000000000006001600160a01b031661097060008051602061225f833981519152546001600160a01b031690565b6001600160a01b0316146109965760405162461bcd60e51b815260040161076790611fb0565b61099f82611217565b61077a82826001611241565b6000306001600160a01b037f00000000000000000000000000000000000000000000000000000000000000001614610a4b5760405162461bcd60e51b815260206004820152603860248201527f555550535570677261646561626c653a206d757374206e6f742062652063616c60448201527f6c6564207468726f7567682064656c656761746563616c6c00000000000000006064820152608401610767565b5060008051602061225f83398151915290565b610a69823383610ef0565b61077a82826114cb565b600054610100900460ff1615808015610a935750600054600160ff909116105b80610aad5750303b158015610aad575060005460ff166001145b610b105760405162461bcd60e51b815260206004820152602e60248201527f496e697469616c697a61626c653a20636f6e747261637420697320616c72656160448201526d191e481a5b9a5d1a585b1a5e995960921b6064820152608401610767565b6000805460ff191660011790558015610b33576000805461ff0019166101001790555b610b7f6040518060400160405280600e81526020016d2220a7b134a1b7b73a3930b1ba1960911b81525060405180604001604052806004815260200163393a222160e11b81525061160b565b610b8761163c565b610b8f611665565b610b9761163c565b610b9f61163c565b610baa60003361112a565b610bc260008051602061227f8339815191523361112a565b610be333610bd26012600a61210e565b610bde906103e861211d565b6113fe565b610c0d7f9f2df0fed2c77648de5860a4cc508cd0818c85b8b8a1ab4ceeef8d981c8956a63361112a565b610c377f189ab7a9244df0848122154315af71fe140f3db0fe014031783b0946b8c9d2e33361112a565b801561085b576000805461ff0019169055604051600181527f7f26b83ff96e1f2b6a682f133852f6798a09c465da95921460cefb38474024989060200160405180910390a150565b60008051602061227f833981519152610c9781611120565b61085b611694565b600091825260fb602090815260408084206001600160a01b0393909316845291905290205460ff1690565b60606037805461061090611f29565b60003381610ce78286610d92565b905083811015610d475760405162461bcd60e51b815260206004820152602560248201527f45524332303a2064656372656173656420616c6c6f77616e63652062656c6f77604482015264207a65726f60d81b6064820152608401610767565b610d548286868403610dcc565b506001949350505050565b6000336106a1818585610f6a565b600082815260fb6020526040902060010154610d8881611120565b6106f683836111b0565b6001600160a01b03918216600090815260346020908152604080832093909416825291909152205490565b6001600160a01b03163b151590565b6001600160a01b038316610e2e5760405162461bcd60e51b8152602060048201526024808201527f45524332303a20617070726f76652066726f6d20746865207a65726f206164646044820152637265737360e01b6064820152608401610767565b6001600160a01b038216610e8f5760405162461bcd60e51b815260206004820152602260248201527f45524332303a20617070726f766520746f20746865207a65726f206164647265604482015261737360f01b6064820152608401610767565b6001600160a01b0383811660008181526034602090815260408083209487168084529482529182902085905590518481527f8c5be1e5ebec7d5bd14f71427d1e84f3dd0314c0f7b2291e5b200ac8c7c3b925910160405180910390a3505050565b6000610efc8484610d92565b90506000198114610f645781811015610f575760405162461bcd60e51b815260206004820152601d60248201527f45524332303a20696e73756666696369656e7420616c6c6f77616e63650000006044820152606401610767565b610f648484848403610dcc565b50505050565b6001600160a01b038316610fce5760405162461bcd60e51b815260206004820152602560248201527f45524332303a207472616e736665722066726f6d20746865207a65726f206164604482015264647265737360d81b6064820152608401610767565b6001600160a01b0382166110305760405162461bcd60e51b815260206004820152602360248201527f45524332303a207472616e7366657220746f20746865207a65726f206164647260448201526265737360e81b6064820152608401610767565b61103b8383836116d1565b6001600160a01b038316600090815260336020526040902054818110156110b35760405162461bcd60e51b815260206004820152602660248201527f45524332303a207472616e7366657220616d6f756e7420657863656564732062604482015265616c616e636560d01b6064820152608401610767565b6001600160a01b0380851660008181526033602052604080822086860390559286168082529083902080548601905591517fddf252ad1be2c89b69c2b068fc378daa952ba7f163c4a11628f55a4df523b3ef906111139086815260200190565b60405180910390a3610f64565b61085b81336116d9565b6111348282610c9f565b61077a57600082815260fb602090815260408083206001600160a01b03851684529091529020805460ff1916600117905561116c3390565b6001600160a01b0316816001600160a01b0316837f2f8788117e7eff1d82e926ec794901d17c78024a50270940304540a733656f0d60405160405180910390a45050565b6111ba8282610c9f565b1561077a57600082815260fb602090815260408083206001600160a01b0385168085529252808320805460ff1916905551339285917ff6391f5c32d9c69d2a47ea670b442974b53935d1edc7fd64eb21e047a839171b9190a45050565b7f189ab7a9244df0848122154315af71fe140f3db0fe014031783b0946b8c9d2e361077a81611120565b7f4910fdfa16fed3260ed0e7147f7cc6da11a60208b5b9406d12a635614ffd91435460ff1615611274576106f683611732565b826001600160a01b03166352d1902d6040518163ffffffff1660e01b8152600401602060405180830381865afa9250505080156112ce575060408051601f3d908101601f191682019092526112cb9181019061213c565b60015b6113315760405162461bcd60e51b815260206004820152602e60248201527f45524331393637557067726164653a206e657720696d706c656d656e7461746960448201526d6f6e206973206e6f74205555505360901b6064820152608401610767565b60008051602061225f83398151915281146113a05760405162461bcd60e51b815260206004820152602960248201527f45524331393637557067726164653a20756e737570706f727465642070726f786044820152681a58589b195555525160ba1b6064820152608401610767565b506106f68383836117ce565b6113b46117f3565b6097805460ff191690557f5db9ee0a495bf2e6ff9c91a7834c1ba4fdd244a5e8aa4e537bd38aeae4b073aa335b6040516001600160a01b03909116815260200160405180910390a1565b6001600160a01b0382166114545760405162461bcd60e51b815260206004820152601f60248201527f45524332303a206d696e7420746f20746865207a65726f2061646472657373006044820152606401610767565b611460600083836116d1565b80603560008282546114729190612012565b90915550506001600160a01b0382166000818152603360209081526040808320805486019055518481527fddf252ad1be2c89b69c2b068fc378daa952ba7f163c4a11628f55a4df523b3ef910160405180910390a35050565b6001600160a01b03821661152b5760405162461bcd60e51b815260206004820152602160248201527f45524332303a206275726e2066726f6d20746865207a65726f206164647265736044820152607360f81b6064820152608401610767565b611537826000836116d1565b6001600160a01b038216600090815260336020526040902054818110156115ab5760405162461bcd60e51b815260206004820152602260248201527f45524332303a206275726e20616d6f756e7420657863656564732062616c616e604482015261636560f01b6064820152608401610767565b6001600160a01b03831660008181526033602090815260408083208686039055603580548790039055518581529192917fddf252ad1be2c89b69c2b068fc378daa952ba7f163c4a11628f55a4df523b3ef910160405180910390a3505050565b600054610100900460ff166116325760405162461bcd60e51b815260040161076790612155565b61077a828261183c565b600054610100900460ff166116635760405162461bcd60e51b815260040161076790612155565b565b600054610100900460ff1661168c5760405162461bcd60e51b815260040161076790612155565b61166361188a565b61169c6118bd565b6097805460ff191660011790557f62e78cea01bee320cd4e420270b5ea74000d11b0c9f74754ebdbfc544b05a2586113e13390565b6106f66118bd565b6116e38282610c9f565b61077a576116f081611903565b6116fb836020611915565b60405160200161170c9291906121a0565b60408051601f198184030181529082905262461bcd60e51b825261076791600401611d12565b6001600160a01b0381163b61179f5760405162461bcd60e51b815260206004820152602d60248201527f455243313936373a206e657720696d706c656d656e746174696f6e206973206e60448201526c1bdd08184818dbdb9d1c9858dd609a1b6064820152608401610767565b60008051602061225f83398151915280546001600160a01b0319166001600160a01b0392909216919091179055565b6117d783611ab1565b6000825111806117e45750805b156106f657610f648383611af1565b60975460ff166116635760405162461bcd60e51b815260206004820152601460248201527314185d5cd8589b194e881b9bdd081c185d5cd95960621b6044820152606401610767565b600054610100900460ff166118635760405162461bcd60e51b815260040161076790612155565b8151611876906036906020850190611c23565b5080516106f6906037906020840190611c23565b600054610100900460ff166118b15760405162461bcd60e51b815260040161076790612155565b6097805460ff19169055565b60975460ff16156116635760405162461bcd60e51b815260206004820152601060248201526f14185d5cd8589b194e881c185d5cd95960821b6044820152606401610767565b60606105fb6001600160a01b03831660145b6060600061192483600261211d565b61192f906002612012565b67ffffffffffffffff81111561194757611947611e27565b6040519080825280601f01601f191660200182016040528015611971576020820181803683370190505b509050600360fc1b8160008151811061198c5761198c612215565b60200101906001600160f81b031916908160001a905350600f60fb1b816001815181106119bb576119bb612215565b60200101906001600160f81b031916908160001a90535060006119df84600261211d565b6119ea906001612012565b90505b6001811115611a62576f181899199a1a9b1b9c1cb0b131b232b360811b85600f1660108110611a1e57611a1e612215565b1a60f81b828281518110611a3457611a34612215565b60200101906001600160f81b031916908160001a90535060049490941c93611a5b8161222b565b90506119ed565b5083156106ca5760405162461bcd60e51b815260206004820181905260248201527f537472696e67733a20686578206c656e67746820696e73756666696369656e746044820152606401610767565b611aba81611732565b6040516001600160a01b038216907fbc7cd75a20ee27fd9adebab32041f755214dbc6bffa90cc0225b39da2e5c2d3b90600090a250565b60606001600160a01b0383163b611b595760405162461bcd60e51b815260206004820152602660248201527f416464726573733a2064656c65676174652063616c6c20746f206e6f6e2d636f6044820152651b9d1c9858dd60d21b6064820152608401610767565b600080846001600160a01b031684604051611b749190612242565b600060405180830381855af49150503d8060008114611baf576040519150601f19603f3d011682016040523d82523d6000602084013e611bb4565b606091505b5091509150611bdc828260405180606001604052806027815260200161229f60279139611be5565b95945050505050565b60608315611bf45750816106ca565b6106ca8383815115611c095781518083602001fd5b8060405162461bcd60e51b81526004016107679190611d12565b828054611c2f90611f29565b90600052602060002090601f016020900481019282611c515760008555611c97565b82601f10611c6a57805160ff1916838001178555611c97565b82800160010185558215611c97579182015b82811115611c97578251825591602001919060010190611c7c565b50611ca3929150611ca7565b5090565b5b80821115611ca35760008155600101611ca8565b600060208284031215611cce57600080fd5b81356001600160e01b0319811681146106ca57600080fd5b60005b83811015611d01578181015183820152602001611ce9565b83811115610f645750506000910152565b6020815260008251806020840152611d31816040850160208701611ce6565b601f01601f19169190910160400192915050565b80356001600160a01b0381168114611d5c57600080fd5b919050565b60008060408385031215611d7457600080fd5b611d7d83611d45565b946020939093013593505050565b600080600060608486031215611da057600080fd5b611da984611d45565b9250611db760208501611d45565b9150604084013590509250925092565b600060208284031215611dd957600080fd5b5035919050565b60008060408385031215611df357600080fd5b82359150611e0360208401611d45565b90509250929050565b600060208284031215611e1e57600080fd5b6106ca82611d45565b634e487b7160e01b600052604160045260246000fd5b60008060408385031215611e5057600080fd5b611e5983611d45565b9150602083013567ffffffffffffffff80821115611e7657600080fd5b818501915085601f830112611e8a57600080fd5b813581811115611e9c57611e9c611e27565b604051601f8201601f19908116603f01168101908382118183101715611ec457611ec4611e27565b81604052828152886020848701011115611edd57600080fd5b8260208601602083013760006020848301015280955050505050509250929050565b60008060408385031215611f1257600080fd5b611f1b83611d45565b9150611e0360208401611d45565b600181811c90821680611f3d57607f821691505b60208210811415611f5e57634e487b7160e01b600052602260045260246000fd5b50919050565b6020808252602c908201527f46756e6374696f6e206d7573742062652063616c6c6564207468726f7567682060408201526b19195b1959d85d1958d85b1b60a21b606082015260800190565b6020808252602c908201527f46756e6374696f6e206d7573742062652063616c6c6564207468726f7567682060408201526b6163746976652070726f787960a01b606082015260800190565b634e487b7160e01b600052601160045260246000fd5b6000821982111561202557612025611ffc565b500190565b600181815b8085111561206557816000190482111561204b5761204b611ffc565b8085161561205857918102915b93841c939080029061202f565b509250929050565b60008261207c575060016105fb565b81612089575060006105fb565b816001811461209f57600281146120a9576120c5565b60019150506105fb565b60ff8411156120ba576120ba611ffc565b50506001821b6105fb565b5060208310610133831016604e8410600b84101617156120e8575081810a6105fb565b6120f2838361202a565b806000190482111561210657612106611ffc565b029392505050565b60006106ca60ff84168361206d565b600081600019048311821515161561213757612137611ffc565b500290565b60006020828403121561214e57600080fd5b5051919050565b6020808252602b908201527f496e697469616c697a61626c653a20636f6e7472616374206973206e6f74206960408201526a6e697469616c697a696e6760a81b606082015260800190565b7f416363657373436f6e74726f6c3a206163636f756e74200000000000000000008152600083516121d8816017850160208801611ce6565b7001034b99036b4b9b9b4b733903937b6329607d1b6017918401918201528351612209816028840160208801611ce6565b01602801949350505050565b634e487b7160e01b600052603260045260246000fd5b60008161223a5761223a611ffc565b506000190190565b60008251612254818460208701611ce6565b919091019291505056fe360894a13ba1a3210667c828492db98dca3e2076cc3735a920a3ca505d382bbc65d7a28e3265b37a6474929f336521b332c1681b933f6cb9f3376673440d862a416464726573733a206c6f772d6c6576656c2064656c65676174652063616c6c206661696c6564a2646970667358221220845c72cdf9be5f3173ead4284d729a6b213f5de1d8883a0b4cb6dbd7728c6ebc64736f6c634300080a0033",
  "linkReferences": {},
  "deployedLinkReferences": {}
}